:10000000501E00203D300000512500003930000016
:1000100039300000393000003930000000000000A5
:100020000000000000000000000000003930000067
:100030003930000000000000393000003930000085
:10004000393000007529000085290000952900003D
:10005000A5290000B5290000C5290000D529000008
:10006000E5290000F5290000052A0000152A0000F6
:10007000252A0000352A0000452A0000552A0000E4
:10008000652A000039300000D9170000393000001F
:1000900039300000393000003930000039300000BC
:1000A00039300000252800003528000049280000CC
:1000B0005D280000712800008128000095280000BC
:1000C000A9280000BD280000CD280000E12800007C
:1000D000F5280000393000003930000039300000C8
:1000E000490C000039300000393000003930000080
:1000F00039300000612500007125000081250000D5
:1001000091250000A1250000B1250000C1250000B7
:10011000D1250000393000003930000039300000AE
:10012000393000003930000039300000393000002B
:1001300039300000E92F000039300000FD2F0000A9
:10014000393000003930000039300000393000000B
:1001500039300000393000003930000039300000FB
:1001600039300000393000003930000039300000EB
:100170003930000011300000253000003930000017
:1001800010B5054C237833B9044B13B10448AFF3D1
:1001900000800123237010BDC00A00200000000071
:1001A000186400000C4B43B10C480D4910B5AFF377
:1001B00000800C48036823B910BD0A48036833B9AE
:1001C0007047094B002BF7D0BDE810401847064B8D
:1001D000002BF5D0184700BF000000001864000095
:1001E000C40A0020186400000000000070470020CE
:1001F000704700000D4B5B881A0A032A01D00020CB
:10020000704713F0FF0F0ED1084BDB88042B01D091
:1002100000207047054B064A9A60064A1A6104227C
:100220009A81012070470020704700BF940D002084
:10023000E80A0020D90200000122014B1A70704721
:10024000DC0A002010B582B0044B00934023044A1E
:1002500000210220034CA04702B010BD9102000013
:10026000F40A0020F515000008B50023044A1370B5
:10027000044A13700122044B1A70044B984708BDBE
:10028000E40A0020E00A0020DC0A00204502000009
:1002900048B908B5402902D0034B984708BD034828
:1002A000034B9847F8E7704745020000F40A002026
:1002B0001B34000010B5034B034A04490448054CA5
:1002C000A04710BDF501000040000020E00A00201A
:1002D000E40A0020DD1C000008B5044B9B89042BB8
:1002E00000D008BD0248034B9847FAE7940D002060
:1002F000E80A00201D340000194B1B780BB9184682
:10030000704730B585B00346EFF31082B2FA82F23F
:100310005209039272B6BFF35F8F0021114A117028
:10032000039C114A11601171006810601B791371F0
:100330000E4B0093052381200D4DA84780F001004E
:10034000074B18702CB10122064B1A70BFF35F8F58
:1003500062B6034B1B7883F00103184605B030BD2D
:10036000DC0A002004010020EC0A00203902000011
:10037000F5150000104B1B681A6853881A4403785F
:100380001844904211D24378042B10D08B4209D0EC
:1003900003781844904206D24378042B09D08B424C
:1003A000F6D107E07047002070470020704700201A
:1003B00070470020704700BF400B002008B5034B7A
:1003C000987800F07F00024B984708BD940D0020FC
:1003D00075140000194B1B784BB3194B1B681B6835
:1003E0001A79824225D970B4164A13605C881C447D
:1003F000A34220D20025012607E0124A13600FE035
:100400001A7813443546A3420CD25A78042AF7D1FD
:100410009A788242F4D1DA788A42F1D1002DECD177
:10042000012002E0074A1360002070BC70470020E2
:100430007047002070470020F7E700BF3C0B00200A
:10044000400B0020440B00202DE9F8430446002116
:10045000134B9847804610B94046BDE8F883114BCE
:100460001B685B6853F82490D9F80C309847014614
:1004700020460B4B984780460028EDD00A4B1C685D
:1004800005260A4D0A4F31462046A847044610B1BA
:100490008078B847F7E7D9F804309847DCE700BF21
:1004A000D5030000400B0020440B00207503000022
:1004B000911C00002DE9F0418046104B98470346FF
:1004C000C8B10F4B1C6805260E4D0F4F3146204614
:1004D000A847044638B18288C1788078B847034677
:1004E0000028F3D107E0094B1B685B6853F82830FC
:1004F0001B68984703461846BDE8F081D503000005
:10050000440B002075030000B9140000400B0020CC
:10051000014B1868704700BF440B002008B5014B21
:10052000984708BD3513000070B50D4B1B7883B19B
:100530000C4B1B681B681B795BB100240A4E094DEC
:100540002046B0470134E4B22B681B681B79A342F4
:10055000F6D80023024A1370044A138070BD00BF0E
:100560003C0B0020400B002049040000340B00200D
:1005700038B50D4B1B78B3B10C4B1B681A68127958
:100580008AB10024094D06E00134E4B22B681A68F0
:100590001279A24207D95B6853F824301B69002BFB
:1005A000F2D09847F0E738BD3C0B0020400B00200C
:1005B000F8B5884B00229A811A615A611B7813F0B2
:1005C000800F14D113F0600F00F0D580814B1B78A1
:1005D00003F01F03012B00F06E817E4B1B7803F0AC
:1005E0001F03022B00F0C98100231846F8BD794A89
:1005F000D288002A00F0EA8113F0600FE6D113F0F0
:100600001F0306D173494978062914D0082974D0EC
:1006100051B1012B79D0022BD8D16E4B5B78002BD6
:1006200000F09B8000238AE1022AD6D102216A4889
:100630006A4B9847BBE0674B5A88130A013B0E2B65
:1006400000F27A81DFE813F00F001D003700780117
:1006500078017801780178017801780178017801D2
:10066000780178012F005E4B186801785B4B984742
:10067000584BDA889B89934240F29980554B9A8176
:1006800095E0D2B2564B1B685B7C9342A5D9544B84
:100690005B6853F832004188504B98474D4B9B683C
:1006A00002225A70E4E74E4B9868002895D04188A2
:1006B0004A4B9847DCE7D2B2012A1BD0AAB1022AE2
:1006C00084D14849082201394748002311F8014FD5
:1006D00020F8024B0133DBB29342F7D35200911C56
:1006E000424801703D4B9847C2E7042140483B4BCC
:1006F0009847BDE73F490622E5E7012A7FF46DAF41
:1007000001213D48354B984751E0324949780A2943
:1007100081D1012A40F0CF80374B1B78002B00F0AD
:10072000CA802C4B1C79354B1D682B681B79A34262
:1007300040F2C18000212046314B984700283FF409
:1007400045AF6B6853F82430DB6898472D4B187021
:1007500001211846214B984729E0022A7FF43DAF3A
:100760001C4B1879284B9847284B188002211846B3
:100770001A4B98471BE013F01F0340F08580154A81
:100780005278013A082A7FD8DFE812F013007E0081
:10079000D8007E0009007E007E007E0044000D4BE4
:1007A000DB88002B7FF419AF194A0A4B1A61012329
:1007B0001BE7084BDB88002B7FF40FAF054B5B88F2
:1007C000012B7FF40AAF044A138823F0020313803D
:1007D000EDE700BF940D0020340B0020AD140000A5
:1007E000A80000209C0000207E0000207C0000204B
:1007F00090000020940000203C0B0020400B0020C3
:10080000D5030000380B002055150000360B0020E2
:10081000BD0300006F4BDB88002B7FF4DEAE6E4B18
:10082000984700283FF4D2AE6A4B9A786B4B1B680E
:100830005B7C9A423FF7CAAE694B9847654B9B7801
:10084000684A1370002BB2D003F10053013B634A96
:10085000526802EBC3006449086052F833301B79D8
:10086000002BA4D000242646604D0F46314620467A
:10087000A84700283FF4AAAE0134E4B23B681B68E5
:100880001B79A342F2D892E7012B0AD0022B7FF406
:100890009DAE504B5B78012B2BD0032B39D000231E
:1008A0004DE04C4A52780B2AF0D14A4BDB8813B901
:1008B0004C4B1B7873B94B4B1B78002B00F0888096
:1008C000444B1C79484B1D682B681B79A3423AD8CE
:1008D00000238AE63F4B1C795D882046444B9847AD
:1008E00000283FF473AEE9B22046404B98470346D8
:1008F00025E0384BDB88002B7FF46FAE354B5B88EF
:10090000002B7FF46AAE334B18793A4B9847034675
:1009100015E0304BDB88002B7FF45FAE2D4B5B88FE
:10092000002B7FF45AAE2B4C2079334B984720791B
:10093000324B9847034602E0002300E00023002BDF
:100940007FF453AE42E6002120462D4B9847002805
:100950003FF443AE6B6853F82450EB689847014668
:100960002046274B984700283FF437AEAB6898479E
:10097000034600287FF439AE2FE61A4B1B780BB3E1
:10098000194B1A6813681B79F3B100241C4E164FDB
:10099000536853F82450EB68984701462046B04707
:1009A000034600283FF421AEAB6898470346002871
:1009B0007FF41BAE0134E4B23A6811680979A142B0
:1009C000E6D812E6002310E600230EE600230CE62C
:1009D00000230AE6940D00209D140000A8000020CA
:1009E000290500003C0B0020400B0020B50400004E
:1009F000490400006915000031170000B51C000013
:100A0000D503000000B583B0104B9847104BDB793D
:100A1000FF2B1AD0EFF31083B3FA83F35B09019332
:100A200072B6BFF35F8F00220A4B1A700199084A11
:100A3000D3790133D37129B10122064B1A70BFF368
:100A40005F8F62B603B05DF804FBFEE77D1F000018
:100A5000F00C002004010020836813F0807FFBD19C
:100A60004165836813F0807FFBD17047836813F082
:100A7000807FFBD14160836813F0807FFBD170479A
:100A800038B542F21073826812F0805F03D0013BE8
:100A9000F9D1002038BD4B781B02036442F2107379
:100AA000826812F0805F03D0013BF9D1002038BD8D
:100AB000036C43F00103036442F21073826812F086
:100AC000805F03D0013BF9D1002038BD0B78012BAA
:100AD0001DD00B7813B98B781B040360836813F067
:100AE000807FFBD10D4604460B78012B15D02B7867
:100AF000BBB1A36813F0807FFBD1236843F00103EF
:100B00002360A36813F0807FFBD1012038BD8B7870
:100B10001B0443F004030360DBE78968034B984739
:100B2000E5E769682046024B9847E2E7590A00006A
:100B30006D0A0000836813F0807FFBD10163836836
:100B400013F0807FFBD17047164B826812F0807FD4
:100B500003D0013BF9D101207047042907D8DFE811
:100B600001F0030F13161A004FF4807303610D4B4D
:100B7000826812F0807F12D0013BF9D102207047C9
:100B80004FF480330361F2E701230361EFE74FF095
:100B900000730361EBE74FF000530361E7E70020C8
:100BA000704700BF80969800836813F0807FFBD168
:100BB000042907D8DFE801F0030B0F1216004FF4E9
:100BC0008073C360836813F0807FFBD170474FF45C
:100BD0008033C360F6E70123C360F3E74FF000738F
:100BE000C360EFE74FF00053C360EBE7F8B59DF843
:100BF0001840114D45F821205AB2002A14DB56093D
:100C000003F01F03012505FA03F30C4D06F16007FD
:100C100045F827302401E4B22A4482F8004345F81D
:100C20002630074B9847F8BD03F00F032401E4B2C8
:100C3000044AD454F5E700BF000D002000E100E0B5
:100C4000490B000014ED00E008B5024B5B689847C3
:100C500008BD00BF000D002082B0014628BB244B18
:100C60001B781BB9224B197002B07047214B1B78BF
:100C700003B9FEE7EFF31083B3FA83F35B09009344
:100C800072B6BFF35F8F00221B4B1A700098194A8F
:100C90001378013B13700028E4D00122164B1A7020
:100CA000BFF35F8F62B6DDE7FEE7114B1B78002BC9
:100CB000D8D1104B1B78FF2BF6D0EFF31083B3FA8B
:100CC00083F35B09019372B6BFF35F8F00220A4B77
:100CD0001A700198074A1378013313700028C1D0A5
:100CE0000122054B1A70BFF35F8F62B6BAE700BFEF
:100CF000490B0020F00C0020040100200122064BCB
:100D00001A600222C03B1A60044A00231361536137
:100D10009381034A1370704720520A40940D0020BB
:100D20004E0B00200522034B1A704FF40022024B99
:100D30001A6070474E0B0020F0510A4082B0032227
:100D4000124B1A70124B5A686FF30E025A60EFF38F
:100D50001083B3FA83F35B09019372B6BFF35F8F1D
:100D600000220C4B1A7001980B4901220A600B4BB0
:100D70001A6008220A601A6028B10122054B1A7015
:100D8000BFF35F8F62B602B0704700BF4E0B00200A
:100D9000800B00200401002060510A40F0510A40FD
:100DA00008B5024B1B6903B1984708BD940D00209C
:100DB000F0B585B0EFF31083B3FA83F35B090193C9
:100DC00072B6BFF35F8F00224C4B1A70019B01215A
:100DD0004B4A116023B1494B1970BFF35F8F62B664
:100DE000484B1B78032B43D0474B1B88474A9489B9
:100DF000E41AA4B2C4B9464A11880B449BB21380CA
:100E0000424AD2889A4238D0424B1B78002B34D1C8
:100E10003E4B5B69002B4ED0984700284BD00022F8
:100E2000394B1A80394B9C89072C44D90022394B05
:100E30001A700824EFF31083B3FA83F35B0902936B
:100E400072B6BFF35F8F00222C4B1A70029D324B9B
:100E50001B6813F0020F32D02DB10122274B1A70FC
:100E6000BFF35F8F62B60422264B1A7005B0F0BD47
:100E70002A4B98472A4B9847F8E70422214B1A70CF
:100E8000EFF31083B3FA83F35B09039372B6BFF3F6
:100E90005F8F0022194B1A70039A102321490B60AF
:100EA00090310B60002AE1D00122144B1A70BFF37D
:100EB0005F8F62B6DAE70122164B1A70BAE7124F5B
:100EC0003E88124B9968224631441748174B984781
:100ED00026443E80164B5A6864F30E025A60012382
:100EE000104A136090321360002DBFD01A46034B96
:100EF0001A70BFF35F8F62B6B8E700BF040100202D
:100F000020520A404E0B00204A0B0020940D002076
:100F10004C0B0020480B002030510A40A10D00006E
:100F2000FD0C000060510A40AC0D0020D5340000DB
:100F3000800B00202DE9F04F85B000F00F05C54B68
:100F400053F825106C1EEFF31083B3FA83F35B099B
:100F5000019372B6BFF35F8F0022BF4B1A70019BE3
:100F60004FF48056AE40BD4A56612BB10122BA4BB8
:100F70001A70BFF35F8F62B604EB8403B84A02EBCA
:100F800083031B7C13F0010F49D00746C1F3021104
:100F9000082202FA01FA10F0800F43D14FEA450906
:100FA000B04A02EB45125268C2F30E084FF080724D
:100FB000AD4941F825200221AC4A42F82510DFF85E
:100FC000B0B24FF480424BF8252013F0040F40F0EC
:100FD000C98004EB8403A24A02EB8303DA6842442B
:100FE000DA609B689A4240F2D48004EB84029C4908
:100FF00001EB8202D3609B4B03EB0919D9F8043053
:10100000974A04EB84039B00D118087C6FF300001F
:101010000874D5581DB13A46C9680020A84705B0E4
:10102000BDE8F08F69008F4B03EB45135A68C2F39C
:101030000E4E8D484FF0807340F8253001228B4BC7
:1010400043F82520BEF1000F0BD1303B53F825307B
:1010500013F4405F05D1834B03EB01135A68C2F3CD
:101060000E0E04EB84037E4A02EB8303DA687244BB
:10107000DA609B689A4256D09B1A9BB213F4004FD9
:101080005ED104EB8407764A02EB87073A7CC2F311
:101090004008DFF8D0E10EEB011EDEF804C068F373
:1010A000DF7CCEF804C06FF341023A746D4F090142
:1010B0007A18D2F804E063F30E0EC2F804E0536825
:1010C0006FF31E435360664BA20002EB040E03EB6A
:1010D0008E0EDEF80420DEF80C3013447B50644B97
:1010E0004FF4804243F825204FF0807243F82520CA
:1010F000EFF31083B3FA83F35B09029372B6BFF385
:101100005F8F0022544B1A70029B012240F8252069
:10111000524A9661002B82D001224F4B1A70BFF3C6
:101120005F8F62B67BE704EB840EDFF834C10CEB13
:101130008E0E9EF810E01EF0020F3FF461AF9BE7A9
:101140001FFA8AF747F6FF7393FBF7F207FB123299
:101150009B1A9BB2434A02EB011257686FF3DF7789
:101160005760A3E704EB84033D4A02EB8303D3F803
:1011700004E0D8681FFA8AF299681346B1FBF2F2CC
:1011800003FB12123B4901EB841170443A4B984720
:101190001FE7344901EB09114968C1F30E41884545
:1011A0007FF42EAF9A423FF42BAF9B1A9BB213F4FD
:1011B000004F43D1CAF100010B401FFA8AF72949B9
:1011C00001EB091148686FF30E004860BB4255D22D
:1011D00004EB8402224B03EB82031A7C42F00402EC
:1011E0001A74244B03EB84141E4A4FEA091942F87F
:1011F00009404A6867F31E424A604FF080734BF81B
:101200002530EFF31083B3FA83F35B09039372B6CF
:10121000BFF35F8F0022104B1A70039B022212490A
:1012200041F825200D4A9661002B3FF4F8AE0122CB
:10123000094B1A70BFF35F8F62B6F0E61FFA8AF0AF
:1012400047F6FF7393FBF0F100FB11315B1A9BB281
:10125000B3E700BF00510A400401002000500A40DB
:10126000500B0020800B0020F0510A4060510A40D2
:1012700020520A40140D0020D534000004EB8404F1
:10128000084901EB840461680A4407484FEA0919D8
:1012900000EB090140F809204A6863F31E424A60E6
:1012A000ABE700BF500B0020800B002030B583B0AF
:1012B000EFF31083B3FA83F35B09019372B6BFF3C4
:1012C0005F8F0022184B1A70019C0120174B984722
:1012D000174AD2F8003823F48043C2F80038D2F815
:1012E000043813F4804FFAD0114B1A6822F480723C
:1012F0001A6008259D610121996110229A610420DC
:1013000098619D609860D9609A60D3F8002842F493
:101310008042C3F8002824B1034B1970BFF35F8FDC
:1013200062B603B030BD00BF04010020590C0000BC
:1013300000500A40F0B583B0EFF31083B3FA83F3A3
:101340005B09009372B6BFF35F8F00253C4B1D70A5
:10135000009E3C4B98473C4B4FF48022C3F88021C1
:10136000502183F812131A60384AD2F8883143F0BA
:101370000403C2F888313648364B9847364CD4F8C7
:10138000003843F08073C4F80038D4F8003843F4D0
:101390000043C4F80038D4F8003823F48043C4F87C
:1013A0000038D4F800382D4F6022294638462C4B9F
:1013B0009847D4F83038C4F830782A4B1A7C65F353
:1013C00000021A7493F8242065F3000283F82420A5
:1013D000236823F480532360236843F4406323602D
:1013E000D4F8003843F48043C4F800381E4B1D7015
:1013F0001E4B9B79FF2B22D0EFF31083B3FA83F3BC
:101400005B09019372B6BFF35F8F00220C4B1A7019
:101410000199164A93790133937129B10122084B3E
:101420001A70BFF35F8F62B6114B98472EB101223D
:10143000034B1A70BFF35F8F62B603B0F0BDFEE7D7
:10144000040100208923000000E100E000000E40BC
:1014500000000F402125000000500A40800B0020B2
:1014600009360000500B0020490B0020F00C002032
:10147000AD120000084B1A6822F080021A601A6848
:1014800022F07F0200F07F0002431A601A6842F0E7
:1014900080021A60704700BF00500A40024B186873
:1014A00000F07F00704700BF00500A40014B986079
:1014B00099817047940D0020F0B400F00F05224B85
:1014C000DB690124AC4023423BD1204E56F8257005
:1014D00027F4CB5727F01407C90201F4C05140B2DA
:1014E0000028B4BF4FF4807300230B43A2F5806142
:1014F00089B2B1F57C4F04D3082A20D95200013AB1
:1015000001E040F2FF72B2FA82F2C2F11C0243EA39
:10151000021323F4D16323F00303DB04DB0C3B430E
:1015200046F825304FF08072094B43F82520A3F58B
:10153000F873DA691443DC610120F0BC70470F22B4
:10154000E1E70020F9E700BF00500A4000510A40DF
:10155000F0510A4000F00F00024B53F82000C0F396
:10156000C0407047C0510A4000F00F00022834D834
:101570001C4B53F8203013F4002F30D04FF40022CE
:10158000194B43F82020F03B53F8203013F0400F64
:1015900008D04022154B43F820204FF4802290338E
:1015A00043F82020013800EB8002114B03EB82034B
:1015B0001B7C13F0010F01D10120704710B50C49BD
:1015C000830001EB8202147C6FF30004147418444E
:1015D00051F820309847012010BD002070470120AD
:1015E000704700BFC0510A4020520A4060510A4073
:1015F000500B0020F0B583B000F00F04022C7FD810
:10160000444DEE690125A54035427CD0424D55F848
:10161000245015F4002F78D1661EEFF31085B5FA2B
:1016200085F56D09019572B6BFF35F8F00273B4DBD
:101630002F70DDF804E006EB8607394D05EB8705D2
:101640002D7C15F0010F0AD0BEF1000F5FD00122F2
:10165000324B1A70BFF35F8F62B6002051E006EB89
:1016600086052F4F07EB85052F7C47F001072F7468
:10167000BEF1000F05D00127284D2F70BFF35F8FFB
:1016800062B6DFF89CC006EB8607BF000CEB0705CF
:101690006A60AB604FF0000EC5F80CE0089A4CF899
:1016A00007202A7C61F341026EF382022A7410F053
:1016B000800F07D11B4951F8242002F4C052B2F523
:1016C000006F0ED0184B03EB441463686FF30E03E6
:1016D000636063686FF31E436360144B9847012097
:1016E0000FE051F82410C1F3021108228A40013A98
:1016F0001A42E7D02B7C6FF300032B74704600E096
:10170000002003B0F0BD0020FBE70020F9E7002037
:10171000F7E700BF00500A40C0510A400401002012
:10172000500B002000510A40800B0020350F0000B4
:1017300070B582B000F00F02EFF31083B3FA83F3B9
:101740005B09019372B6BFF35F8F00211D4B1970C7
:10175000019813464FF4805191401B4C616128B1B0
:10176000012018490870BFF35F8F62B695004FF0F3
:101770008070164941F82200013B03EB83001449B5
:1017800001EB8001097C11F0010F19D0104803EB27
:10179000830189004418267C6FF3000626744458A0
:1017A00074B10C49695811F4807F18BF42F080026F
:1017B00003EB8303064901EB8303D9680120A047AB
:1017C00002B070BD0401002000500A40F0510A40F0
:1017D000500B002000510A4030B585B08D4B5B683E
:1017E00013F0040F74D18B4B5B6813F4805F26D029
:1017F000894B10221A6008221A60F03B1B6813F014
:10180000040F70D1854B1B6813F0020F40F0CB80A2
:10181000824B1B6813F0010F05D0814B1B6813F03E
:10182000010F40F06E817D4B1B6813F0080F40F0F4
:101830006B817A4B1B6813F0100F40F07881754B69
:101840001B6913F4005F05D0724B5B6813F4005FF3
:1018500040F087816F4B1B6913F4804F05D06D4BAF
:101860005B6813F4804F40F07A816A4B5B6813F039
:10187000080F40F08281674B1B6913F0010F05D000
:10188000644B5B6813F0010F40F0C281614B1B6930
:1018900013F0100F23D05F4B5B6813F0100F1ED0B6
:1018A0005C4B10229A60D3F8002822F48042C3F8DF
:1018B00000281A46D2F8043813F4804FFAD0554B5A
:1018C00010225A61012098609861564B984706E0B3
:1018D0000422504B9A60544B9847544B9847BFF39F
:1018E0005F8F05B030BD524B1B785BB9514B5B68C5
:1018F000C3F30E03082B0AD04F4B984704224F4BDB
:101900001A60ECE74E4B98474E4B9847EEE74E4B2C
:101910004E4A92E8030083E803004D4B98470028A5
:101920002DD00422454B1A60474B93F90030002B11
:101930002BDB454BDB88002B32D00022454B1A8035
:10194000454B1A8001213A4B197010213B4B19600D
:10195000EFF31083B3FA83F35B09019372B6BFF31D
:101960005F8F3E4B1A70019B3D4A1160002BB6D031
:1019700001223A4B1A70BFF35F8F62B6AFE72E4B6E
:10198000984704222D4B1A60A9E70023314A13809F
:10199000314A13800222264B1A70324B98479EE739
:1019A000314B98479BE7224B1B78012B0BD0022B26
:1019B00004D0042B02D0204B984701E0204B9847DD
:1019C000204B98478BE71B4B5D68C5F30E051E4BFC
:1019D0009B89214A148862199342BCBF1B1B9DB28C
:1019E000194B98682A4619492044204B98472C44A3
:1019F000A4B2194B1C80082D3AD0134B9C815B6913
:101A000013B1984700285CD002220C4B1A60164B89
:101A1000984764E700500A4020520A4030510A407B
:101A2000C0510A40590C0000710500001934000033
:101A30004E0B0020800B0020250D000060510A4055
:101A4000A10D0000FD0C0000940D0020AC0D002045
:101A5000B10500004C0B00204A0B002004010020BF
:101A6000F0510A40B10D00003D0D0000D5340000DA
:101A7000734BDA88734B1B8823449A42BDDD704B4D
:101A80009B89A34223D0704B02221A6010221A6055
:101A9000EFF31083B3FA83F35B09029372B6BFF3DB
:101AA0005F8F0021694B1970029B69490A60002B06
:101AB0003FF415AF0122654B1A70BFF35F8F62B61A
:101AC0000DE7644B984702225F4B1A6007E75C4BB7
:101AD0005B6953B1984770B15A495F4A0B881088C7
:101AE00003440B8000231380CDE75A4B9847022212
:101AF000554B1A60F3E6574B98470222524B1A6037
:101B0000EDE6564B9847EAE608224F4B1A60303B09
:101B10001B6813F0010F7FF4E2AE514B1B78032BCF
:101B20007FF4DDAE4FF40022494B1A60D7E6102255
:101B3000454B1A60303B1B6813F0020F7FF4CFAEA9
:101B4000474B1B78012B07D0042B7FF4C8AE4FF412
:101B500000223F4B1A60C2E6424B9847BFE6022084
:101B600000E00120404B53F8203013F4807F18BF71
:101B700040F080003D4B9847B1E63D4C0823A36000
:101B800001203C4DA8470220A8473B4B9847E369FA
:101B900023F07F03E361236823F07F03236023683E
:101BA00043F080032360304A136823F4CB5323F0BF
:101BB00014031360314B324A1A605A686FF31E42A5
:101BC0005A60E36943F00103E3614FF080722D4BEB
:101BD0001A60EFF31083B3FA83F35B09039372B6D1
:101BE000BFF35F8F0022194B1A70039A184B042120
:101BF0001960022119604FF48053A3612AB10122B8
:101C0000124B1A70BFF35F8F62B61F4B984766E6A0
:101C1000174B01219960D3F8002822F48042C3F8C1
:101C20000028596110229A609A61D3F8002842F482
:101C30008042C3F800280020144B98474FE600BFAD
:101C4000940D00204C0B002060510A40040100203C
:101C5000F0510A40250D00004A0B0020B10D000094
:101C60004E0B00203D0D000000510A40350F0000D2
:101C700000500A403117000029050000800B0020A9
:101C8000AC0D002020520A40FD0C0000590C000051
:101C900010B50446054B9847054AD06904F07F0407
:101CA0000123A34020EA0300D06110BD31170000DA
:101CB00000500A4008B500F00F03022B01D90020A4
:101CC00008BD4FF40021034A42F82310024B984705
:101CD000012008BDF0510A403117000038B5144604
:101CE000374A127812F0800F05D102F06002202AE4
:101CF00049D0002038BD12F0600203D1304D6D781C
:101D0000062D03D0202A28D0002038BD2D4B98471F
:101D1000837A212B01D0002038BD294B5B881B0A18
:101D2000212B04D0C27B9A420DD0002038BD244B19
:101D300000F109029A60427AD9888A4228BF0A468D
:101D40009A81012038BD1E4B9C60028AD9888A4244
:101D500028BF0A469A81012038BD194A5278022AC2
:101D600007D0032A0AD0012A01D0002038BD9847A5
:101D700038BD134B98600120988138BD104B996095
:101D80000120988138BD0E4A52780A2A07D00B2AC2
:101D90000BD0092A01D0002038BD984738BD084B28
:101DA0005B881B0A0370012038BD054BDB8823B913
:101DB000034B5B880B70012038BD002038BD00BF8D
:101DC000940D00201105000082B0EFF31083B3FAE8
:101DD00083F35B09019372B6BFF35F8F0022084B58
:101DE0001A70019A074B08499961084919622AB18A
:101DF0000122034B1A70BFF35F8F62B602B07047C7
:101E00000401002000080E40200000AA110001007B
:101E100010B483B0EFF31083B3FA83F35B0901933B
:101E200072B6BFF35F8F00220E4B1A70019C01F156
:101E300009039B0003F47F7343F02A430A4A93612A
:101E4000036843F00103083102EB810253602CB1B7
:101E50000122044B1A70BFF35F8F62B603B010BC4F
:101E6000704700BF0401002000080E4070B483B02A
:101E7000EFF31083B3FA83F35B09019372B6BFF3F8
:101E80005F8F00220E4B1A70019D83000D4C54F899
:101E90002060012202FA01F13143203303F47F7301
:101EA00043F02A43084A936544F820102DB10122DB
:101EB000034B1A70BFF35F8F62B603B070BC7047FC
:101EC0000401002020000E4000000E4030B583B019
:101ED0000446EFF31083B3FA83F35B09019372B600
:101EE000BFF35F8F00220C4B1A70019D0B4B9B6A56
:101EF00063B12DB10122084B1A70BFF35F8F62B638
:101F000021460220064B984703B030BD0521012031
:101F1000034B9847EDE700BF0401002000000E408E
:101F20006D1E000030B583B00446EFF31083B3FAA2
:101F300083F35B09019372B6BFF35F8F00220C4BF2
:101F40001A70019D0B4BDB6A63B12DB10122084B66
:101F50001A70BFF35F8F62B621460320064B984785
:101F600003B030BD06210120034B9847EDE700BFC9
:101F70000401002000000E406D1E000008B5A84BB3
:101F8000984200F0908120D9A64B984200F0AF8192
:101F900040F2AE80A44B984200F0B88140F2ED8050
:101FA000A24B984200F0BC8100F20681A3F50063C9
:101FB000984200F0B08103F58063984240F0FB80C6
:101FC000022105209A4B984708BDA3F5902398421B
:101FD00000F01B8149D8A3F58033984200F00981B5
:101FE00021D8A3F58033984200F0F48012D9914BA8
:101FF000984200F0F38003F58043984212D1032009
:102000008D4B9847874B1A6C42F055028B49996566
:102010001A6408BDB0F1402F03D10020864B9847C9
:1020200008BD08BD08BD864B984200F0E68012D975
:10203000844B984200F0E58003F5F843984213D1B1
:1020400008207D4B9847774B1A6C42F004027B497D
:1020500099651A6408BDA3F57053984203D1052011
:10206000754B984708BD08BD08BD774B984200F0F6
:102070000E8122D8A3F58033984200F0F9800BD965
:10208000724B984200F0FF8003F58043984213D1D1
:102090000D20694B984708BDA3F5804398420AD1AB
:1020A0000A20654B98475F4B1A6C42F00402634963
:1020B00099651A6408BD08BD08BD654B984200F0DB
:1020C000EA800BD9634B984200F0E98003F5804326
:1020D00098420CD11220584B984708BDA3F5804375
:1020E000984203D10F20544B984708BD08BD08BD46
:1020F000A3F57C33984200F0E6801FD8A3F5143393
:10210000984200F0D4800FD9534B984200F0D3800E
:1021100003F58063984210D102210120444B984777
:1021200001204E4B984708BDA3F58043984203D148
:102130001520414B984708BD08BD08BD484B984243
:1021400000F0C5800BD9474B984200F0C88003F5DA
:102150008053984210D10620404B984708BDA3F504
:102160000053984207D100210120314B98470320AA
:102170003A4B984708BD08BD08BDA3F5784398427F
:1021800000F0BA800CD9384B984200F0BA8003F5C1
:10219000806398420ED104210846254B984708BD1C
:1021A000A3F58063984204D101210420204B984775
:1021B00008BD08BD08BD08BD2C4B984200F0B58095
:1021C00003F58063984204D105210846184B9847CF
:1021D00008BD08BD0120184B984708BD0220164BCA
:1021E0009847104B1A6C42F05502144999651A64CD
:1021F00008BD0420104B984708BD06200E4B984799
:1022000008BD07200C4B984708BD09200A4B98478A
:10221000044B1A6C42F00402084999651A6408BD1F
:102220000000074000000E4000000F40000C0F406F
:102230006D1E000000000140CD1E0000400000AAFD
:1022400000C0014000C40140000004400080034081
:10225000004006400080064000000A40251F0000A4
:1022600000400A4000500A40000C0E4000100F4091
:102270000B20304B9847304B1A6C42F004022F4928
:1022800099651A6408BD0C202A4B984708BD0E209A
:10229000284B984708BD1020264B984708BD1120B1
:1022A000244B984708BD1320224B984708BD1620A1
:1022B000204B984708BD01210846214B9847002034
:1022C000204B984708BD02201E4B984708BD0421AB
:1022D00001201B4B984704201A4B984708BD032147
:1022E0000120174B98470520164B984708BD002141
:1022F0000420134B984708BD02210420104B984737
:1023000008BD032104200E4B984708BD002105207D
:102310000B4B984708BD01210520094B984708BD84
:1023200003210520064B984708BD04210520044BD6
:10233000984708BDCD1E000000000E40400000AAD6
:102340006D1E0000251F000082B0EFF31083B3FA6A
:1023500083F35B09019372B6BFF35F8F0022084BD2
:102360001A70019A074B4FF02A41996518602AB1FB
:102370000122034B1A70BFF35F8F62B602B0704741
:102380000401002000000E4000B583B00520164B6C
:10239000984703210120154B9847154B5B6913F0B3
:1023A000400F10D1124B5B6913F0010F13D002A83C
:1023B000104B40F8043D00210F4B98470C4A5369DD
:1023C00013F0400FFBD041F20102094BC3F89020FB
:1023D00003B05DF804FB094B9847054A536913F0B5
:1023E000010FFBD0E3E700BF251F00006D1E0000BA
:1023F00000080E401001053F111E0000C91D00001D
:1024000030B583B01D4C20461D4B98470123A36077
:102410002246D36813F0010FFBD01A4B98471A4A93
:10242000536913F0010FFBD0002211461748184BD7
:1024300098470120174B9847174A00211748184B17
:102440009847164D174C2846A04710F0010FFAD0B8
:10245000EFF31083B3FA83F35B09019372B6BFF312
:102460005F8F0022104B1A70019B2BB101220E4B83
:102470001A70BFF35F8F62B603B030BD00040A402C
:102480007D1F0000C91D000000080E400024F4005C
:10249000712600004923000080A9030000000F40BE
:1024A000AD24000039250000040100202DE9F0438F
:1024B00083B0C36923F0030EEFF31083B3FA83F301
:1024C0005B09019372B6BFF35F8F0025114B1D703E
:1024D000019E114CD4F808802768D4F804906260FB
:1024E0000523236001F0030141F00C0141EA0E01D4
:1024F0000A4B98472560C4F80490C4F80880276008
:102500002EB10122034B1A70BFF35F8F62B603B086
:10251000BDE8F0830401002010E000E0010000208D
:10252000C36943F080730249024A9161C3617047F5
:102530001C0000AA00000F404069704708B5034B1B
:1025400053F8203003B1984708BD00BFB40D0020F8
:1025500008B50020014B984708BD00BF3D2500008D
:1025600008B50120014B984708BD00BF3D2500007C
:1025700008B50220014B984708BD00BF3D2500006B
:1025800008B50320014B984708BD00BF3D2500005A
:1025900008B50420014B984708BD00BF3D25000049
:1025A00008B50520014B984708BD00BF3D25000038
:1025B00008B50620014B984708BD00BF3D25000027
:1025C00008B50720014B984708BD00BF3D25000016
:1025D00008B50820014B984708BD00BF3D25000005
:1025E000054B1A6822F04002002814BF4023002344
:1025F0001343014A1360704700000A40024B986879
:1026000000F00100704700BF00000A4010B5024C06
:10261000A0470028FCD010BDFD25000038B50546B8
:102620000C46104B1B6898470F4B5B68002C12DB65
:10263000240224F07F4424F0FF0445F025452C4378
:10264000094B5C609B6803F00C03084A1360054B60
:102650001B68984738BD23F03F0444F025442C43C1
:10266000EEE700BF0001002000000A40E00B002060
:1026700008B500292DD11D4B984214D91C4B984206
:1026800008D801201B4B98474FF0FF3111201A4BFF
:10269000984708BD0120174B98474FF0FF31102095
:1026A000154B984708BD12B1144B984208D9002029
:1026B000104B98474FF0FF3111200F4B984708BD42
:1026C00001200C4B98474FF0FF3111200A4B9847DF
:1026D00008BD0B4B98428CBF01200020054B98474A
:1026E0004FF0FF311120044B984708BD80A812011C
:1026F00000512502E12500001D260000001BB70047
:1027000000127A002DE9F04F83B00191470207F1E2
:10271000804707F56127D7F8D0A0154B1B68FBB1A0
:102720000646144D0024A9464FF0010BDFF8408007
:1027300005E001340835D8F80030A34210D959F823
:102740003430B6EB531FF4D103F01F030BFA03F33D
:1027500013EA0A0FEDD06B68002BEAD09847E8E740
:10276000019B0AEA0303C7F8D83003B0BDE8F08F35
:10277000140C0020E40B002070B4264B1C68052CC0
:102780003FD800F01F050123AB4013F0FF0F36D1F7
:1027900013F47F4F2FD113F47F0F2ED103F07F431B
:1027A000002B0CBF04230323450903EB85031933D6
:1027B000DBB25EB2184D45F8340005EBC40461602D
:1027C000002E20DB700903F01F03012101FA03F33F
:1027D000124900F1600441F824301201D2B20E44D3
:1027E00086F8002341F820300A4A13680133136049
:1027F000012070BC70470123D6E70223D4E70023F1
:10280000D2E70020F5E703F00F031201D2B204492A
:10281000CA54E9E7140C0020E40B002000E100E0BA
:1028200014ED00E008B5FF210020014B984708BDDA
:102830000527000008B54FF47F410020014B984761
:1028400008BD00BF0527000008B54FF47F01002038
:10285000014B984708BD00BF0527000008B54FF0A1
:102860007F410020014B984708BD00BF05270000AD
:1028700008B5FF210120014B984708BD052700003E
:1028800008B54FF47F410120014B984708BD00BFB8
:102890000527000008B54FF47F010120014B984740
:1028A00008BD00BF0527000008B54FF07F4101209B
:1028B000014B984708BD00BF0527000008B5FF2160
:1028C0000220014B984708BD0527000008B54FF4CA
:1028D0007F410220014B984708BD00BF052700003B
:1028E00008B54FF47F010220014B984708BD00BF97
:1028F0000527000008B54FF07F410220014B9847A3
:1029000008BD00BF05270000102828BF0020800157
:1029100000F1804000F522207047000008B50D4B03
:102920009847C269C36A12F0010F10D013F0040F68
:1029300001D0042008BD13F0020F01D0032008BD10
:1029400003F00103002B14BF0220012008BD00206A
:1029500008BD00BF0929000010B50446034B984785
:10296000034B53F8243003B1984710BD1D290000D4
:10297000D80D002008B50020014B984708BD00BFC6
:102980005929000008B50120014B984708BD00BF38
:102990005929000008B50220014B984708BD00BF27
:1029A0005929000008B50320014B984708BD00BF16
:1029B0005929000008B50420014B984708BD00BF05
:1029C0005929000008B50520014B984708BD00BFF4
:1029D0005929000008B50620014B984708BD00BFE3
:1029E0005929000008B50720014B984708BD00BFD2
:1029F0005929000008B50820014B984708BD00BFC1
:102A00005929000008B50920014B984708BD00BFAF
:102A10005929000008B50A20014B984708BD00BF9E
:102A20005929000008B50B20014B984708BD00BF8D
:102A30005929000008B50C20014B984708BD00BF7C
:102A40005929000008B50D20014B984708BD00BF6B
:102A50005929000008B50E20014B984708BD00BF5A
:102A60005929000008B50F20014B984708BD00BF49
:102A700059290000084B98420AD0A3F58043984298
:102A800008D0A3F5B823984214BF00200120704756
:102A9000032070470220704700C0074010B582B085
:102AA00004464FF4FA630193B24B9847E369B24A84
:102AB00052F82020134013F4A06F1AD003F480734F
:102AC000002B14BF6FF003026FF00102AB4B1A54DE
:102AD000236923F400432361E36823F40043E360A4
:102AE0004FF0FF33E36263620022A54B1A5402B039
:102AF00010BD13F0010F7BD0A2496269D2B251F828
:102B0000203003F8012B41F820309F4B53F8202050
:102B1000013A43F8202053F82030002BE7D1984B9E
:102B20001B5C002B54D0994B53F82030002B4FD016
:102B3000974B53F8203041F82030944A52F8202027
:102B4000FF2A2DD9FF21904A42F820100B44904AC9
:102B500042F820308D4A52F82030FF3B42F82030B6
:102B60008A4B53F820307BB34FF4FA630193236907
:102B700013F4004F04D0019B5A1E0192002BF6D192
:102B8000E36823F03F7323F44833804A52F820204F
:102B9000FF2A0FD943F03F7343F440332361A6E784
:102BA0007A4B53F82010784A42F82010002243F85C
:102BB0002020D5E7754A52F8202043F480431204C0
:102BC00002F47F021343E9E700226D4B1A548EE7AB
:102BD0000123636200226A4B1A540823E3622362D2
:102BE000654A52F8203043F0080342F820307EE76F
:102BF00013F0020F00F0B580664B53F820309BB9FC
:102C000002236362614B53F8203013B900225C4BFE
:102C10001A540823E3622362574A52F8203043F0E3
:102C2000080342F8203062E75B4A52F82030591C12
:102C300042F820101B78DBB2A361564B53F82020DA
:102C4000013A43F8202053F82030002B7FF44FAF97
:102C50004B4B1B5C002B53D0504B53F82030002BB8
:102C60004ED04F4B53F820304B4A42F820304B4A5D
:102C700052F82020FF2A2BD9FF21464A42F8201083
:102C80000B44474A42F82030444A52F82030FF3B78
:102C900042F82030414B53F820306BB34FF4FA63C5
:102CA0000193236913F4004F04D0019B5A1E019233
:102CB000002BF6D1E36823F47F0323F40053374A53
:102CC00052F82020FF2A0DD943F47F0323610EE739
:102CD000324B53F820102F4A42F82010002243F8BC
:102CE0002020D7E72D4A52F8202043F480431204D5
:102CF00002F47F021343E9E70022214B1A54F6E65F
:102D00001F4B1B5C002B3FF4F2AE204B53F82030DE
:102D1000002B3FF4ECAE4FF4FA630193236913F4F4
:102D2000004F04D0019B5A1E0192002BF6D1E3689C
:102D300023F03F7323F44833144A52F82020FF2A2B
:102D400005D943F03F7343F440332361CFE60F4A84
:102D500052F8202043F48043120402F47F0213430C
:102D6000F3E713F0080F3FF4C2AE0823E362636297
:102D7000BDE600BF752A00005C0C0020580C002046
:102D80006C0C0020380C0020900C0020700C0020EF
:102D9000180C0020A00C0020480C0020800C002003
:102DA000280C002070B4B2FBF1F25208FF2A22D99D
:102DB00000240134E4B25208FF2A04D9082CF8D1C7
:102DC0006FF0070015E0072C17D85508110401F41F
:102DD0007F01EEB231431B0603F070630B43521BBD
:102DE000120292B21A43240704F0E04414434460F0
:102DF000002070BC70470024E7E76FF00700F8E799
:102E000070B4B2FBF1F25208FF2A22D90024013437
:102E1000E4B25208FF2A04D9082CF8D16FF0070059
:102E200015E0072C17D85508110401F47F01EEB204
:102E300031431B0603F070630B43521B120292B224
:102E40001A43240704F0E04414438463002070BC58
:102E500070470024E7E76FF00700F8E770B5054614
:102E60000C46374B984701232B6080232B604FF093
:102E7000FF33EB62A37B23B110232B604FF0FF33B2
:102E8000AB60616821B9A16859B94FF0005117E0F2
:102E9000237B226828462B4EB04700284AD1A168E0
:102EA00031B1637B22682846274EB047002844D1C1
:102EB0006168264B994294BF4FF000514FF040514A
:102EC000E37B1B0603F04073227C120402F4E02231
:102ED0001343A27C02F007021343627C120202F445
:102EE000407213430B43EB63E37D03F0070343F0AE
:102EF0008053E27C120602F040721343627D12049A
:102F000002F4E0221343227D120502F4401213431F
:102F1000A27D120202F4407213432B640C4BD91DA4
:102F2000002203F8012F8B42FBD10122094BDA71F9
:102F3000002070BD6FF0070070BD6FF0070070BD1E
:102F40007D1F0000A52D0000012E00003F420F0054
:102F5000EF0C0020F00C0020F8B504460E46174692
:102F60001D461C4B98471C4B9C4223D0A3F5804325
:102F70009C4221D0A3F5B8239C4225D00022174BB8
:102F80009C421BD0164B43F8207053B2580902F0F4
:102F90001F02012101FA02F2124900F1600741F813
:102FA00027202D01EDB20B4483F8005341F8202077
:102FB0002662F8BD4E22E2E74D22E3E7084B43F8D4
:102FC00020703D231A46E1E7054B43F820703F236C
:102FD0001A46DBE7752A000000C007400080014068
:102FE000180E002000E100E008B5024B1B68024803
:102FF000984708BD180E00200080014008B5024B1C
:103000005B680248984708BD180E002000C00140C8
:1030100008B5024B9B680248984708BD180E00206F
:103020000080074008B5024BDB680248984708BD9E
:10303000180E002000C00740FEE7000008B5174B3F
:10304000174A9A4210D0174B144A9A420CD2013BAD
:103050009B1A23F0030304331344114951F8040B62
:1030600042F8040B9A42F9D10F4B104A9A420AD205
:10307000013B9B1A23F0030304331344002142F85D
:10308000041B9342FBD10A4A0A4B23F07F0393604F
:10309000094B9847094B9847FEE700BF0000002006
:1030A00018640000B80A0020500E0020C00A00205A
:1030B00000ED00E0000000005D340000213400005D
:1030C0000A4B1B6853B1094B1B681A1808499142F7
:1030D00008DB1046054A106018467047054A034B46
:1030E0001A60F0E74FF0FF30704700BFB00C0020CF
:1030F000FC7F0020501E00204FF0FF3070474FF43F
:1031000000534B600020704701207047002070473B
:1031100030B4184B1A6E02F03002C2F30014520998
:10312000154890F90050154991F900305B0043EAC9
:10313000C503134343EA840304700A700E2B0BD8B3
:1031400044F28212DA4012F0010F05D00C4A1388C3
:103150000133138030BC70470D2BFBD842F61402AC
:1031600022FA03F313F0010FF4D0054A1388013B50
:103170001380EFE700100E40B50C0020B60C0020C5
:10318000B80C002008B501211148124B9847124B8A
:103190001B7813F0010F4FF00041104A14BF516526
:1031A0009165DB430C4A13700D4BB3F9003013F0FB
:1031B000010F4FF08041094A14BF516591650948DC
:1031C00043800022064B1A80074B984708BD00BF7A
:1031D00000080F40A90B0000B40C002000100E40A6
:1031E000B80C0020F80C0020F902000030B587B0C0
:1031F0005D4C20465D4B98474FF400536364C4F820
:10320000683163654FF000436364C4F868316365F7
:103210004FF080436364C4F8683163654FF48043C2
:103220006364C4F8683163654FF400436364C4F8B1
:10323000683163654FF480336364C4F86831636553
:1032400004236364C4F8683163654FF0005363641A
:10325000C4F8683163652022A264C4F86421102395
:10326000A364C4F864316267C4F88820C4F8C42039
:10327000C4F80821A261A262A263C4F8A820C4F81D
:10328000B8206367C4F88830C4F8C430C4F8083183
:10329000A361A362A363C4F8A830C4F8B8300122C4
:1032A00033490520334B984728B101223049042087
:1032B000304B984718B93048304B9847FEE72A4BB7
:1032C0002022C3F894201022C3F894204FF4001257
:1032D0009A67C3F88820C3F8C820C3F808219A6108
:1032E0009A625A639A604FF480029A67C3F8882002
:1032F000C3F8C820C3F808219A619A625A639A6099
:103300004FF000729A67C3F88820C3F8C820C3F84A
:1033100008219A619A629A639A604FF080629A6774
:10332000C3F88820C3F8C820C3F808219A619A62BC
:103330009A639A60124B0093124B019300248DF80C
:103340000E4002948DF80C408DF80D400E4D6946EC
:1033500028460E4B984701230D4A214628460D4C1E
:10336000A04707B030BD00BF00100E407D1F000019
:10337000113100007927000068620000AD340000C0
:103380000024F400801A0600008007405D2E000033
:103390009D2A0000592F000010B586B000238DF83B
:1033A0000C3002228DF80D2013228DF80E2004938C
:1033B000124C2046124B984703A92046114B9847C0
:1033C00012212046104B98470523009328230F4ACB
:1033D000012120460E4CA047012809D002280CBF2D
:1033E0004FF000424FF080420A4B9A6506B010BD84
:1033F0004FF40052074B9A65F8E700BF00080F40F2
:10340000050A0000810A0000350B0000853100002C
:10341000ED0B000000100E40704770477047000031
:1034200008B5094B98470122084B1A70BFF35F8F0C
:1034300062B6074B9847074B9847074B98474FF49E
:10344000FA73013BFDD1FAE70124000004010020DA
:10345000ED3100001D0500009933000070B50F4EDE
:103460000F4D761BB61018BF002405D0013455F857
:10347000043B9847A642F9D10A4E0B4D761B02F049
:10348000B5FFB61018BF002406D0013455F8043B30
:103490009847A642F9D170BD70BD00BFF863000027
:1034A000F863000000640000F86300000FB400B58A
:1034B000074983B004AB086853F8042B8168019373
:1034C00000F030F903B05DF804EB04B0704700BFC2
:1034D00008010020844641EA000313F003036DD184
:1034E000403A41D351F8043B40F8043B51F8043BC7
:1034F00040F8043B51F8043B40F8043B51F8043BCE
:1035000040F8043B51F8043B40F8043B51F8043BBD
:1035100040F8043B51F8043B40F8043B51F8043BAD
:1035200040F8043B51F8043B40F8043B51F8043B9D
:1035300040F8043B51F8043B40F8043B51F8043B8D
:1035400040F8043B51F8043B40F8043B51F8043B7D
:1035500040F8043B51F8043B40F8043B51F8043B6D
:1035600040F8043B403ABDD2303211D351F8043B0D
:1035700040F8043B51F8043B40F8043B51F8043B4D
:1035800040F8043B51F8043B40F8043B103AEDD2BC
:103590000C3205D351F8043B40F8043B043AF9D20D
:1035A000043208D0D2071CBF11F8013B00F8013BE0
:1035B00001D30B8803806046704700BF082A13D3ED
:1035C0008B078DD010F003038AD0C3F10403D21A05
:1035D000DB071CBF11F8013B00F8013B80D331F839
:1035E000023B20F8023B7BE7043AD9D3013A11F8B9
:1035F000013B00F8013BF9D20B7803704B78437024
:103600008B7883706046704770B4860746D0541E2E
:10361000002A41D0CAB2034602E014F1FF343BD382
:1036200003F8012B9D07F8D1032C2ED9CDB245EA22
:1036300005250F2C45EA054519D903F11002264648
:10364000103E0F2E42F8105C42F80C5C42F8085C09
:1036500042F8045C02F11002F2D8A4F1100222F048
:103660000F0204F00F041032032C13440DD91E4630
:103670002246043A032A46F8045BFAD8221F22F0B5
:1036800003020432134404F003042CB1C9B21C44F5
:1036900003F8011B9C42FBD170BC704714460346E3
:1036A000C2E700BF2DE9F84F4B6E9C0493462FD51F
:1036B0009368126853B30E46074602F1080919E9E8
:1036C00020045FEA9A0817D0043D002401E0A045D9
:1036D00010D0324655F8041F384601F0BBF8431CA1
:1036E00004F10104F3D10023CBF80830CBF8043007
:1036F000BDE8F88FDBF808302AF0030AA3EB0A03D1
:10370000CBF8083009F10809002BD8D10020EAE7EE
:1037100001F00AFA0023CBF80830CBF80430BDE8FA
:10372000F88F00BF2DE9F04FADB01D468B46904697
:103730000793069018B1836B002B00F0F380DBF841
:103740006430BBF90C00DF0781B202D48E0540F172
:10375000FC808C040AD4DBF8643040F4005123F47C
:103760000053ABF80C10CBF8643089B2080740F175
:10377000B380DBF81030002B00F0AE8001F01A03AC
:103780000A2B00F0B58000230DF170090B93119303
:1037900010930393CDF83C90CA46CDF810B098F83A
:1037A00000304446FBB1252B02D11CE0252B03D071
:1037B00014F8013F002BF9D1A4EB08059DB1109B33
:1037C000119ACAF8008001332A44072BCAF8045022
:1037D000119210937ADD002A40F0B084039B10927E
:1037E0002B44CA4603932378002B00F0E08300208B
:1037F0004FF000038DF8373004F101086278054678
:10380000064603464FF0FF3408F10108A2F12001FB
:10381000582900F2DE82DFE811F02102DC02DC022E
:103820002902DC02DC02DC02DC02DC02DC028902AE
:103830009502DC02A200BD02DC029F01A401A401EA
:10384000A401A401A401A401A401A401A401DC0217
:10385000DC02DC02DC02DC02DC02DC02DC02DC0278
:10386000DC02B201DC02DC02DC02DC02DC02DC0293
:10387000DC02DC02DC02DC029701DC02DC02DC029E
:10388000DC02DC029B01DC02DC025302DC02DC0213
:10389000DC02DC02DC02DC02DC02DC02DC02DC0238
:1038A0005A021B02DC02DC02DC026E021B02DC029A
:1038B000DC027302DC02F50182010902D702DC029C
:1038C0009A02DC02A700DC02DC022E020AF1080ADE
:1038D000039B2B44039386E75946069800F0ACFD02
:1038E00018BBBBF80C1001F01A030A2B7FF44BAF86
:1038F000BBF90E30002BFFF646AFDBF86430DB0778
:1039000005D48F0503D4DBF8580001F0C3FA2B4629
:1039100042465946069800F04DFD039003982DB09D
:10392000BDE8F08F00F0F4FE09E7DBF86430D9075A
:1039300004D4BBF80C309A0540F1AA844FF0FF3351
:10394000039303982DB0BDE8F08FDBF8580001F029
:103950009FFABBF90C0081B2FBE67642079243F076
:10396000040398F800204FE708969E0600F1508463
:103970000799DD060A4600F1EF83580640F1EC8313
:103980000E8804310027012207914FF000018DF8C5
:1039900037100025611C00F0168123F08001029190
:1039A00056EA070140F01481002C40F05C83002AA5
:1039B00040F0B78313F00103059300F057840DF135
:1039C000B00B30230BF8413D059BA342B8BF234603
:1039D00001930DB101330193029B13F0020309938C
:1039E00002D0019B02330193029B13F084030A93DC
:1039F00040F01782089B019A9D1A002D40F3118216
:103A0000102D40F39084109B119AC44ED646102777
:103A1000A2461946069C07E001F1020C0EF1080EC1
:103A20000146103D102D11DD481C1032072811925F
:103A30008EE8C0001090EFDD002A40F0E481103DD8
:103A4000102D11464FF0010CCE46EDDC5446614678
:103A5000F2462A4407291192CAF80060CAF80450B5
:103A6000109100F3EC829DF837500AF1080A481CC7
:103A7000002D40F0DE81099B002B00F0F88102321E
:103A80000EA902230728119210908AE80A0040F339
:103A9000EA81002A40F08C830A9B802B4FF00100C2
:103AA0001146CA4640F0E781089B019D5E1B002E2F
:103AB00040F3E181102E9A4D40F35084D4461027F4
:103AC000A246069C07E001F1020E0CF1080C01462B
:103AD000103E102E11DD481C1032072811928CE880
:103AE000A0001090EFDD002A40F09D82103E102EC5
:103AF0004FF0010E1146CC46EDDC5446E24632440E
:103B0000BEF1070F11928AE86000CDF840E000F3A3
:103B100069830AF1080A0EF101007146ABE10896CB
:103B200013F0200240F08C8313F0100140F01A8350
:103B300013F0400200F0168307980A46014604314C
:103B400006880791002720E7089643F01003E7E76F
:103B5000089643F0100308E743F0800398F800202C
:103B600052E6A2F13001002618F8012B06EB86067A
:103B700001EB4606A2F130010929F5D946E608967F
:103B8000002840F0088443F010039E0600F14C83A7
:103B9000DD0600F1F382580640F1F082079DB5F989
:103BA00000602A46F717043230463946079200284B
:103BB00071F10002C0F25D83611C9DF837504FF037
:103BC00001027FF4EAAE56EA070100F04D8202934B
:103BD000012A00F08C82022A40F05C820B98CB46CE
:103BE000330906F00F0143EA07733A091E461746E8
:103BF000435C0BF8013D56EA0703F1D1A9EB0B0337
:103C00000593E1E6002840F0C083990600F1678340
:103C1000DA0600F1F1805B0640F1EE80079A136846
:103C200004320792BDF80C201A80B8E507983D4A87
:103C300008960B9206687822302104308DF83920DE
:103C400043F00203079000278DF8381002229CE60B
:103C50000896002899D08DF8375096E798F80020FC
:103C6000002D7FF4D1AD01202025CDE543F00103E7
:103C700098F80020C8E50896002840F09383294969
:103C80000B919F0600F1E8820798DE06014600F1DD
:103C900070825D0640F16D8204310688079100272D
:103CA000D80740F1228256EA070100F01E82302137
:103CB0008DF8392043F002038DF83810022264E6B3
:103CC0000896002840F06B8317490B91D9E70799B4
:103CD00008960A688DF848204FF000000A468DF8D3
:103CE0003700043201200190079205900DF1480B36
:103CF0000293002470E643F0400398F8002083E527
:103D000098F800206C2A03BF98F8012043F02003A4
:103D100008F1010843F0100376E500BFB862000027
:103D2000C86200009C6200008862000007990E686B
:103D30000A46002E02F10402FFF60FAE079298F831
:103D4000002061E598F8002001202B255CE507990B
:103D50000896D1F800B04FF000028DF837200E1D04
:103D6000BBF1000F00F0E582671C00F0C482224620
:103D700000215846019301F0D3FB019B002800F07D
:103D8000E582A0EB0B020592079602939DF837504F
:103D9000002419E698F800202A2A08F1010700F00B
:103DA000E982A2F130010929B8464FF000043FF63C
:103DB0002DAD18F8012B04EB840401EB4404A2F1AF
:103DC00030010929F5D921E543F0200398F80020B6
:103DD0001AE50896002840F0DB82002A00F0E78010
:103DE00001218DF848204FF0000201918DF8372015
:103DF00005910DF1480B7BE7079A1368043207928F
:103E0000039A1A60CBE40FAA04992046FFF74AFCF4
:103E1000002840F039811099119A01F1010CCE4629
:103E2000FFE51099119A481C9DF83750002D3FF47A
:103E300022AE01320DF137050121072811921090B1
:103E4000CAF80050CAF8041040F30881002A40F074
:103E5000BC81099B002B3FF41FAE0EAB022208462B
:103E60001C931D92CA4601460AF1080A01300A9BBA
:103E7000802B3FF419AE059BE41A002C2EDD102C8C
:103E8000B34D1EDDD6461026069FDDF810A006E0D5
:103E9000881C0EF1080E1946103C102C10DD4B1C2E
:103EA0001032072B11928EE860001093F0DD002A8B
:103EB00065D1103C102C4FF001001146CE46EEDCCF
:103EC000F246224407281192CAF80050CAF804406A
:103ED000109000F385800AF1080A01300599CAF8AC
:103EE00000B00A4407281192CAF80410109040F359
:103EF0008280002A40F01881029B1092580735D525
:103F0000089B01995C1A002C40F3E780CA46102CEC
:103F100040F3188210998F4E069FDDF810B01025DF
:103F200006E0881C0AF1080A1946103C102C11DD25
:103F30004B1C1032072B1192CAF80060CAF80450CB
:103F40001093EEDD42BB103C102C4FF001001146E7
:103F5000CA46EDDC224407281192CAF80060CAF86C
:103F60000440109051DD002A40F09B81039B089A89
:103F700001998A42ACBF9B185B1803934EE00FAACD
:103F800051463846FFF78EFB002840F03F811099DC
:103F9000119A481CCE467FE70FAA59463846FFF7CC
:103FA00081FB60B91099119A481CCA46BDE7119B64
:103FB000DDF810B0002B40F0D48100231093DBF823
:103FC000643013F0010FBBF80C3002D19A0540F1B8
:103FD000DE805B063FF5B2AC03982DB0BDE8F08FF4
:103FE000002A40F00681059A1D9201231192CDF816
:103FF00070B01093CA460AF1080A029B590704D50B
:10400000089B01995C1A002C81DC039B089901989C
:104010008142ACBF5B181B18039372BB0023109343
:10402000CA46FFF7BCBB0FAA04992046FFF73AFB2C
:1040300050BB1099119A01F1010ECC4648E5002AB7
:1040400040F040819DF83710002900F01B810122CB
:104050000DF1370110461D921C91CA4601460AF126
:10406000080A013007E5029B012A00F09880022A25
:104070000DD1029300260027B0E50FAA04990698F7
:10408000FFF710FB0028C9D0DDF810B097E70293C6
:1040900000260027494600E05946F20842EA4772E6
:1040A000F80806F0070307461646303356EA0702BB
:1040B00001F8013C01F1FF3BEED1029AD6077FF5F2
:1040C0009DAD302B3FF49AAD023930230BF8013C03
:1040D000A9EB010305938B4676E4039B089A8A4279
:1040E000ACBF9B185B18039398E702224DE4002FA6
:1040F00008BF0A2E52D3CB46304639460A22002347
:1041000001F01AFF30320BF8012D304639460023FA
:104110000A2201F011FF06460F4656EA0703EBD1CB
:104120006CE50594CB464FE40FAA04990698FFF777
:10413000B9FA0028A8D1119ACA465EE70FAA0499D5
:104140000698FFF7AFFA00289ED1CA46FFF7C0BB1A
:10415000C8620000B86200000431166807910122AD
:10416000002712E4079801460431066807910027EA
:104170000BE40E6804310791002791E507990E685A
:104180000A46F71704320792304639460FE5DBF846
:10419000580000F07FFEBBF80C301AE7029B029338
:1041A0000DF1B00B303601230BF8416D05930BE494
:1041B0000FAA04990698FFF775FA00287FF464AFF8
:1041C0001099119A481CCA4651E60FAA04990698FC
:1041D000FFF768FA00287FF457AF1099119A481C2E
:1041E000CA4648E4002A40F0918001201146CA46A0
:1041F00041E60FAA04990698FFF754FA00287FF4C5
:1042000043AF1098119A0130CA4667E6D346D6E606
:10421000079E073626F0070202F10801D2E900677F
:1042200007910122FFF7B1BB079E073626F007066C
:10423000D6E9000106F10802079206460F46B6E4E9
:10424000079E073626F0070202F10801D2E900674F
:1042500007910022FFF799BB079E073626F007015A
:1042600001F108000790D1E9006719E5CB46FFF797
:10427000ABBB2D25764267EB47078DF837500122FF
:10428000FFF788BB099BB3B911460120CA46F2E586
:10429000DBF8580000F0FEFD4FF0FF330393FFF70B
:1042A00050BB0FAA04990698FFF7FCF900287FF489
:1042B000EBAE119AA9E60EAB02221C931D920120CF
:1042C000CA46D0E50FAA04990698FFF7EBF9002833
:1042D0007FF4DAAE1099119A481CCA46A4E5079AF1
:1042E00003991368CD170846043229460792C3E99B
:1042F0000001FFF754BA58460796029301F0E0FB1D
:10430000002405909DF83750FFF75EBB0FAA049973
:104310000698FFF7C7F900287FF4B6AE1099119AF6
:10432000481CCA46A7E51099119A204E0131FFF7A3
:1043300090BB062C28BF0624059407960194DFF84D
:1043400070B0D5E41098194E013003E605949DF83D
:104350003750079602930446FFF736BB8646FFF7B1
:10436000CEBB06980FAA5946FFF79CF900283FF4E8
:1043700024AE24E6079998F801200C68043144EA39
:10438000E474B8460791FFF73FBA8DF837503CE424
:104390008DF8375021E58DF83750FFF7F4BB8DF8D5
:1043A000375091E48DF8375069E400BFB8620000DF
:1043B000B06200002DE9F0410C46ADF58D6D8989A4
:1043C000666EE589199621F002010646E069ADF8AE
:1043D0000C1017464FF48061626AADF80E50984693
:1043E0001AAD0023079016A809920693009504952C
:1043F0000291059100F048FD43463A466946304631
:10440000FFF790F9051E07DB3046694600F028F9F2
:10441000002818BF4FF0FF35BDF80C305B0603D500
:10442000A38943F04003A381169800F02FFD28468E
:104430000DF58D6DBDE8F08138B5304B1B68054634
:104440000C4613B19A6B002A38D0B4F90C2093B201
:1044500018070CD52069A8B113F001021ED06369BA
:1044600000225B42A361A260F0B1002038BDD906F2
:104470003CD5580726D4206942F00803A3819BB29B
:104480000028E9D103F42072B2F5007FE4D0284679
:10449000214600F02FFDA3892069DDE7990758BF69
:1044A0006269A2600028E0D1B4F90C301A06DDD5AB
:1044B00043F04003A3814FF0FF3038BD184600F0B1
:1044C00027F9C2E7216B51B104F14003994204D0AE
:1044D000284600F043FAB4F90C200023236300239C
:1044E0002069636022F024022060C5E742F04002A8
:1044F00009232B604FF0FF30A28138BD0801002056
:10450000024B13B1024800F005B8704700000000EC
:1045100081470000002301461A46184601F0E4BB1B
:10452000B1F90C309AB22DE9F0410D4611078046E1
:104530003AD46A6843F40063002AAB816FDDAC6A49
:10454000002C49D000229BB2D8F80060C8F80020A7
:1045500013F4805267D02A6D5F0705D569682B6B0D
:10456000521A0BB1EB6BD21A0023E9694046A047FF
:10457000441C3CD0B5F90C302A692A6023F400634E
:104580000022AB81DB046A6047D4296BC8F8006065
:1045900011B305F14003994202D0404600F0DEF924
:1045A00000202863BDE8F0812E69AEB12C682E6032
:1045B00091070CBF6B690023A41BAB600AE0234684
:1045C00032466F6AE9694046B8470028A4EB000408
:1045D000064404DD002CF2DC0020BDE8F081AB894C
:1045E00043F04003AB814FF0FF30BDE8F081D8F8D5
:1045F00000401D2CF3D8194BE340DB4313F00103BB
:10460000EDD1B5F90C206B6022F400632969AB8110
:10461000DA042960B9D5002CB7D12865B5E7EA6B73
:10462000002A8CDCD8E70123E9694046A047431CF7
:10463000024602D0AB89AC6A8EE7D8F80030002B76
:10464000F8D01D2B01D0162B02D1C8F80060C3E7AB
:10465000AB8943F04003AB81BDE8F081010040200D
:1046600038B50D46044608B1836BBBB1B5F90C00F3
:1046700088B16B6EDB0701D4810517D5204629462A
:10468000FFF74EFF6B6EDA07044602D4AB899B0539
:1046900007D5204638BD0446204638BD00F038F81E
:1046A000E4E7A86D00F0F6FB204638BDA86D00F0E9
:1046B000EFFBE3E7014900F0AFBB00BFD15D0000B5
:1046C00010B5002304468181C2810360436083608A
:1046D0004366036143618361194608225C30FEF73B
:1046E00093FF07480749084A084B2062E46161626A
:1046F000A262E36204F15800BDE8104000F0C4BBC0
:10470000115A0000355A0000715A0000915A0000F9
:1047100010B50446124800F0BBFBA26BD2B904F5F9
:104720003B731048C4F8E8320321C4F8E022E06388
:10473000C4F8E41260680421FFF7C2FF01220921D6
:10474000A068FFF7BDFF02221221E068FFF7B8FF63
:104750000123A3630248BDE8104000F09BBB00BFEB
:10476000340E0020B5460000014800F091BB00BFA8
:10477000480E0020014800F08DBB00BF480E00200D
:1047800038B50A4C0A4D641BA4100AD004F18043CA
:10479000013B05EB8305013C55F804399847002C93
:1047A000F9D1BDE8384001F02BBE00BF1064000015
:1047B0000C6400002DE9F04782B08046894614461B
:1047C00000F054FB012836D04A4604F15C0301A9ED
:1047D000404601F03BFA421C064625D0A8B39DF89E
:1047E00004E000250DF1040A09E023685A1C226048
:1047F00083F800E00135B54227D215F80AE0A36836
:10480000013B002BA360F0DAA769BB427146224648
:10481000404602DBBEF10A0FE7D101F0BFF9431CAD
:10482000E8D102B0BDE8F087A38943F04003A3813B
:1048300002B0BDE8F08709F1FF33FE2BC4D85FFA60
:1048400089FE06468DF804E0CBE7484602B0BDE895
:10485000F08700BF30B5536E13F0010FB2F90C3082
:10486000144683B005469AB201D190051CD5900438
:1048700006D4626E43F4005342F40052A381626690
:1048800028462246FFF796FF636EDA07054602D4F4
:10489000A3899B0502D5284603B030BDA06D00F06A
:1048A000F9FA284603B030BDA06D019100F0F0FA8E
:1048B000B4F90C3001999AB2D9E700BFF8B5244F8A
:1048C0000C46064600F0E0FEBB685D68C4F57E61FC
:1048D0000F3125F00305294421F47F6121F00F01F8
:1048E000A1F58054B4F5805F07DB0021304601F06C
:1048F0007DF8BB682B44984204D0304600F0CAFED5
:104900000020F8BD6142304601F070F801300DD052
:10491000104BBA6819682D1B45F001053046091B7C
:104920005560196000F0B6FE0120F8BD0021304648
:1049300001F05CF8BA68831A0F2BDEDD064C0549DE
:10494000246843F00103001B53600860D5E700BFF3
:10495000A8060020BC0C0020B00A0020002944D08A
:104960002DE9F0410D46804600F08EFE55F8047C9E
:10497000694927F00103A5F10804E2188E68506820
:10498000B24220F003005ED0FE0750600BD455F811
:10499000087CE41B01F1080EA56875453B446DD009
:1049A000E768EF60BD6015186D68ED073ED543F010
:1049B00001026260E350B3F5007F17D2DB08581C98
:1049C0009A104D6851F83070A7600123934001EBB5
:1049D000C0022B43083AE2604B6041F83040FC6073
:1049E0004046BDE8F04100F055BE70475A0A042A1F
:1049F00052D89A0902F13907FF0002F13805C819A7
:104A0000CA59083890424FD0516821F003018B42B7
:104A100032D292689042F7D1C368A060E3609C6094
:104A2000C4604046BDE8F04100F034BE95683B4F9D
:104A3000BD42034440D0D068E86043F00102856085
:104A40006260E350B7E7FF07034407D455F8082C2A
:104A5000A41A1344A068E268C2609060304A1268E9
:104A600043F00100934260608C60B9D32D4B404607
:104A70001968FFF723FFB3E71046CDE7111849681F
:104A8000C90744D49168D268CA60034443F0010066
:104A900091606060E350A3E7142A16D802F15C0726
:104AA000FF0002F15B05AAE7AA1001234D689340BD
:104AB0002B434B600346B0E743F001024C610C61AD
:104AC000E560A5606260E3508AE7542A06D81A0BB5
:104AD00002F16F07FF0002F16E0590E7B2F5AA7FC1
:104AE00006D8DA0B02F17807FF0002F1770586E7B6
:104AF00040F25450824206D89A0C02F17D07FF0022
:104B000002F17C057BE74FF47E777E2577E743F063
:104B100001016160136063E7A8060020B006002071
:104B2000B40A0020EC0C00209368002B73D02DE910
:104B3000F04F8B8983B00C4619070090164626D596
:104B4000226922B313F0020035682CD04FF000091F
:104B5000B04FC846B246B84543464A4628BF3B46D2
:104B60000098B8F1000F50D0E169666AB04700289C
:104B700058DDDAF808301B1A8144A8EB0008CAF89F
:104B80000830002BE7D1002003B0BDE8F08F2146AC
:104B90000098FFF751FC002840F03381A389356865
:104BA00013F00200D2D113F0010945D14F4601960E
:104BB00037B39A05D4F8088040F183804745C3464F
:104BC000C0F0AB8013F4906F40F0AC802068BA4620
:104BD0005A46494600F0F4FCA2682368A2EB08029A
:104BE0005B44A2602360019A9368A3EB0A03D1445B
:104BF000A7EB0A079360002BC5D0A389002FD8D15B
:104C0000D5F800906F680835D2E7D5F80090D5F850
:104C1000048008359FE70020704721460098FFF781
:104C20001FFD70B3B4F90C3043F040034FF0FF3078
:104C3000A38103B0BDE8F08F814633464E46A846B7
:104C40009A464D464EB380B3206823696269B145E8
:104C5000CB4628BFB34698425F4604D9A3681344A5
:104C60009B4500F3A68093454BDB1346676AE169D9
:104C700000982A46B847071ED4DDB9EB0709CCD007
:104C80000120DAF80830DB1B3D44F61BCAF8083077
:104C9000002B3FF478AF002ED5D108F1080313E9BB
:104CA000600098460833002EF9D032460A21284683
:104CB00000F036FC002800F0A1800130A0EB0509CF
:104CC000C2E720682369984202D863699F425DD297
:104CD000B84528BFB8464246494600F071FCA36873
:104CE0002268A3EB08034244A36022600BB1C246D2
:104CF00079E721460098FFF7B3FC002892D1C2461D
:104D000071E75A46294600F05BFCA2682368A2EBD3
:104D10000B025B44A2602360AFE72068B846BA4646
:104D2000BB4655E762692068216902EB4208A0EBA7
:104D3000010A08EBD8780AF101004FEA6808384404
:104D40004045424684BF804642465B0544D51146F5
:104D5000009800F019F98346002855D05246216981
:104D6000FEF7B8FBA38923F4906343F08003A3818B
:104D70000BEB0A00A8EB0A03C4F810B0C4F81480C7
:104D80002060A360B846BA46BB4621E76FF00041F9
:104D9000B94228BF39464A4691FBF3F10098666A4A
:104DA00003FB01F3E169B047B0F1000A3FF71BAF25
:104DB00038E71A462946019300F002FC2268019B5D
:104DC00000981A4422602146FFF74AFC019B002804
:104DD0007FF428AF1F4650E7009800F061FC83463F
:104DE0000028C5D1009D21692846FFF7B7FDB4F919
:104DF0000C300C2223F080032A6015E706F101092C
:104E000022E74FF0FF30BFE6009A0C231360B4F99D
:104E10000C3009E700FCFF7F2DE9F84310F53877E7
:104E20001FD0884606464FF000097D68BC68013DEA
:104E300011D4A389012B05F1FF3508D9B4F90E303F
:104E400001332146304602D0C04749EA00096B1CB5
:104E500004F16804EDD13F68002FE6D14846BDE873
:104E6000F883B9464846BDE8F88300BF044B054ABD
:104E70001B685B6B002B08BF134693F82801704733
:104E8000080100203C050020704700BF704700BFAC
:104E9000704700BF704700BF70B50C46B1F90E10E7
:104EA000002990B015461E4614DB01AA00F0F2FF5F
:104EB00000280FDB029A02F47042A2F50052B2FA07
:104EC00082F252094FF480634FF4006032602B602D
:104ED00010B070BDA289002312F08000336004D0AE
:104EE000402218462A6010B070BD4FF480632B60DA
:104EF00010B070BD8A8992070B4606D501F14302B6
:104F000001211A601A6159617047F0B583B001AB95
:104F10006A460C460646FFF7BFFF00990546304635
:104F200000F032F8B4F90C30D8B1019A154F00995D
:104F3000F76343F08003A3812060206161611AB9A7
:104F40002B43A38103B0F0BD3046B4F90E1000F03E
:104F5000B5FFA0B1A38923F0030343F001031BB203
:104F6000EEE79A05EED423F0030304F1430243F085
:104F700002030121A381226022616161E2E7B4F9A9
:104F80000C30DDE7B54600002DE9F04F01F10B06CE
:104F9000162E83B0054640F29E8036F0070600F1DB
:104FA000BD80B14200F2BA8000F06EFBB6F5FC7F26
:104FB000C0F09382730A00F0B880042B00F279816C
:104FC000B30903F1390003F1380EC300BF4F3B446E
:104FD000A3F108015C68A14206D10CE0002A80F22E
:104FE000AA80E468A14206D0636823F003039A1BF9
:104FF0000F2AF3DD70463C69DFF8E4E2744500F007
:10500000AB81636823F003039A1B0F2A00F390819E
:10501000002AC7F814E0C7F810E080F29D80B3F5CD
:10502000007F80F06181DB0803F1010C99107A6840
:1050300057F83C80C4F8088001238B4007EBCC0173
:1050400013430839E1607B6047F83C40C8F80C40E6
:105050008210012494409C4200F28B801C4206D1B5
:1050600020F0030064001C4200F10400FAD007EBBA
:10507000C009CC468046DCF80C309C4507D16DE178
:10508000002A80F27B81DB689C4500F067815968CB
:1050900021F003018A1B0F2AF2DDD3F80CC0D3F8EC
:1050A000088000939C19284646F0010642F001054D
:1050B0005E60C8F80CC0CCF808807C613C61C4F824
:1050C0000CE0C4F808E065605A5000F0E3FA009B79
:1050D00003F108041EE0102920D800F0D5FA1026AC
:1050E00018230220794F3B44A3F108025C689442E4
:1050F00000F03D816368E168A66823F00303234460
:1051000028465A68F16042F001028E605A6000F051
:10511000C1FA0834204603B0BDE8F08F00240C2308
:1051200020462B6003B0BDE8F08F40204FF40073A1
:105130004FF03F0E4AE72344E1685A68A66842F000
:105140000102F16028468E605A6000F0A3FA08342C
:10515000204603B0BDE8F08F234428465A6842F049
:1051600001025A6000F096FA0834204603B0BDE808
:10517000F08FBC68636823F00308B04504D3A8EB44
:1051800006030F2B00F38580DFF85891504BD9F8B8
:1051900000201B680132334404EB080A00F05581FB
:1051A00003F580530F3323F47F6B2BF00F0B59461D
:1051B000284600F01BFC411C024600F0FC808245A2
:1051C00000F2F780434B19685944196000F04D8193
:1051D000D9F8000001301BBFA2EB0A0A5144C9F8FC
:1051E0000020196012F0070100F01581C1F10800DC
:1051F000C1F580510244083102EB0B09C9F30B09D8
:10520000A1EB0909494628460193009200F0EEFB04
:10521000431C9DE80C0000F04381801A484440F094
:1052200001001968BA604944BC425060196017D047
:10523000B8F10F0F40F2FB806068A8F10C0222F079
:10524000070204EB020E00F001004FF0050C1043C2
:105250000F2A6060CEF804C0CEF808C000F21781B3
:105260001D4BBC681A68914288BF19601B4B1A68B5
:105270009142626888BF196022F003029642A2EB55
:10528000060301D80F2B04DC284600F003FA0024A3
:1052900040E7A21943F0010346F001066660284684
:1052A000BA60536000F0F6F90834204603B0BDE858
:1052B000F08F142B71D9542B00F2A380330B03F120
:1052C0006F0003F16E0EC30080E600BFA806002049
:1052D000EC0C0020BC0C0020E40C0020E80C0020AA
:1052E000B0060020B00A00205A0A042A5BD9142A0A
:1052F00000F2AE8002F15C01C9005B3207EB010CE9
:105300007958ACF1080C8C4500F088804A6822F08E
:105310000302934273D289688C45F7D1DCF80C20E4
:105320007B68E260C4F808C09460CCF80C408FE65B
:10533000A11946F0010C42F00106C4F804C0284649
:1053400079613961C1F80CE0C1F808E04E60E250C3
:1053500000F0A0F90834DDE67B6879E608F1010881
:1053600018F0030F0CF1080C7FF485AE2DE0DC681B
:10537000A34208BF02303FF43EAEBBE619441C46D0
:105380004A68DB6854F8086F42F001024A60284618
:10539000F3609E6000F07EF9BCE603F15C0003F16F
:1053A0005B0EC30012E69A0902F13901C9003832D6
:1053B000A4E7BC4254D0BC68626822F003025DE7F7
:1053C00059F80839994540F0868010F0030F00F134
:1053D000FF30F5D17B6823EA04037B6064009C42C4
:1053E0003FF6C7AE002C3FF4C4AE1C4240467FF4EB
:1053F0003EAE64001C4200F10400FAD037E68C4651
:105400008CE7B3F5AA7F15D8F30B03F1780003F10D
:10541000770EC300DAE54FF48051EDE67B68921019
:10542000012101FA02F213437B60624679E701230E
:10543000536029E740F25452934222D8B30C03F14F
:105440007D0003F17C0EC300C0E503F1100BAEE656
:10545000542A29D81A0B02F16F01C9006E324DE7A8
:10546000204B196859441960B2E6CAF30B000028B2
:105470007FF4AEAE08EB0B03BA6843F00103536050
:10548000EEE67F204FF47E734FF07E0E9EE504F132
:10549000080128460093FFF761FA009B1968DFE6D0
:1054A00001204FF00009BCE6B2F5AA7F05D8DA0B5F
:1054B00002F17801C900773220E740F254518A4264
:1054C00005D89A0C02F17D01C9007C3216E74FF431
:1054D0007E717E2212E77B6880E7F00806F1080300
:1054E00000E600BFBC0C002082B049B15AB16BB1DC
:1054F00013780B601278101C18BF012002B070479F
:1055000001A9002AF3D1104602B070476FF00100E4
:10551000F4E700BF000000000000000000000000F1
:1055200001F0FF01102A2BDB10F0070F08D010F854
:10553000013B013A8B422DD010F0070F42B3F6D158
:10554000F0B441EA012141EA014122F007047FF071
:1055500000070023F0E80256083C85EA010586EAC8
:10556000010685FA47F5A3FA87F586FA47F6A5FA04
:1055700087F68EB9EED1F0BC01F0FF0102F0070210
:1055800032B110F8013B013A83EA010313B1F8D1BB
:105590000020704701387047002D06BF354603389C
:1055A000073815F0010F07D1013015F4807F02BFD5
:1055B000013015F4C03F0130F0BC0138704700BF26
:1055C0008842F0B50DD98B1898420AD28418002A67
:1055D00051D0224613F8014D02F8014D9942F9D1FC
:1055E000F0BD0F2A48D941EA00039B0746D100F1DC
:1055F000100401F11003154653F8106C44F8106CB8
:1056000053F80C6C44F80C6C53F8086C44F8086CB4
:10561000103D53F8046C44F8046C0F2D03F1100393
:1056200004F11004E8D8A2F1100323F00F0302F0F4
:105630000F0E1033BEF1030F1944034421D91E1F6E
:105640000D467446043C55F8047B46F8047F032C51
:10565000F8D8AEF1040424F00304043421442344B4
:1056600002F0030262B1013B0A4411F8014B03F856
:10567000014F8A42F9D1F0BD0346F3E70346F2E752
:10568000F0BD7246EEE700BF0148FFF701BC00BF66
:10569000380E00200148FFF7FDBB00BF380E002088
:1056A000002900F095802DE9F04F0D46164683B095
:1056B000804606F10B07FFF7E7FF55F804EC162FBD
:1056C0002EF00304A5F108093CD810221746BE426B
:1056D0003DD8944243DAC44B996809EB04008842F0
:1056E00000F0B480436823F0010101444968C90710
:1056F0004CD51EF0010F00F09B8031464046FFF76D
:1057000043FC064600283AD055F8043C23F0010338
:105710004B44A0F108029A4200F02181221F242A62
:1057200000F20781132A00F2DB8003462A46116843
:1057300019605168596092689A6029464046FFF79F
:105740000DF91CE027F00707002F3A46BFDA0026C4
:105750000C233046C8F8003003B0BDE8F08F2E4669
:10576000E31B0F2B1ED8D9F8043003F001032343A9
:105770004C44C9F80430636843F001036360404659
:10578000FFF788FF304603B0BDE8F08F23F0030336
:10579000E11891421FDBC36882682E46D3600C4635
:1057A0009A60DDE7D9F8042009EB070102F0010255
:1057B0004C4443F001031743C9F804704B6063681D
:1057C00043F00103083163604046FFF7C7F8D6E7AE
:1057D0001146FFF7D9BB1EF0010F8ED155F8081CFA
:1057E000A9EB010ADAF8041021F003010B44234469
:1057F000934225DBC26881685646CA609160DAF838
:105800000C1056F8080F221F242AC160886000F28D
:105810009480132A6FD92968CAF808106968CAF8F1
:105820000C101B2A00F2A28008350AF1100263E076
:1058300055F8083CA9EB030ADAF8041021F003013B
:1058400063189342FFF659AF5646D8E7416821F0F6
:10585000030BA34407F11000834556DA1EF0010F35
:105860007FF44BAF55F8081CA9EB010ADAF80410D5
:1058700021F003018B445845E2DC5646DAF80C105F
:1058800056F8080F221F242AC160886000F28F801A
:10589000132A40F28A802968CAF808106968CAF891
:1058A0000C101B2A00F28A8008350AF110022968C0
:1058B000116069685160A96891600AEB0701ABEB60
:1058C000070242F0010299604A60DAF8043003F0FE
:1058D00001031F434046CAF80470FFF7DBFE51E79F
:1058E0002B6803606B6843601B2A2DD800F1080306
:1058F00005F108021BE732462968116069685160AA
:10590000A96891601C46D1462AE709EB0701ABEB79
:10591000070B4BF0010299604A6055F8043C03F014
:1059200001031F43404645F8047CFFF7B3FE2E46B3
:1059300028E72946FFF744FEFFE6294630461C4685
:10594000D146FFF73DFE0BE7AB688360EB68C360B1
:10595000242A17D000F1100305F11002E7E650F8F1
:10596000043C23F003031C442E46F9E6A968CAF858
:105970001010E968CAF81410242A0CD010350AF166
:105980001802B9E72B6903616B69436105F11802DD
:1059900000F11803CBE62A69CAF818206A69CAF828
:1059A0001C2018350AF12002A6E732467FE7294677
:1059B00030460193FFF704FE019B7EE7A968CAF811
:1059C0001010E968CAF81410242A03D010350AF11F
:1059D00018026CE72A69CAF818206A69CAF81C20FC
:1059E00018350AF1200262E7A806002038B5074CF6
:1059F0000023054608462360FDF762FB431C00D0E8
:105A000038BD2368002BFBD02B6038BD4C0E002026
:105A100010B50C46B1F90E1000F078FA002803DB3F
:105A2000236D0344236510BDA38923F48053A38110
:105A300010BD00BF2DE9F0411646B1F90C201F46FC
:105A4000D3050C46054607D500220223B1F90E10F6
:105A500000F046FAB4F90C20B4F90E1022F480528A
:105A6000A2813B4632462846BDE8F04100F026B907
:105A700010B50C46B1F90E1000F032FAA389421CA1
:105A80000EBF23F4805343F480532065A38110BDDF
:105A9000B1F90E1000F08AB900000000000000000B
:105AA00000000000000000000000000000000000F6
:105AB00000000000000000000000000000000000E6
:105AC00090F800F06DE9024520F007016FF0000C3E
:105AD00010F0070491F820F040F049804FF00004E6
