:10000000501E002039280000111F00003528000074
:1000100035280000352800003528000000000000C9
:100020000000000000000000000000003528000073
:1000300035280000000000003528000035280000A9
:1000400035280000912200009D220000A922000016
:10005000B5220000C1220000CD220000D9220000FC
:10006000E5220000F1220000FD220000092300002B
:1000700015230000212300002D2300003923000058
:1000800045230000352800005114000035280000E9
:1000900035280000352800003528000035280000EC
:1000A00035280000792100008521000095210000FD
:1000B000A5210000B5210000C1210000D1210000D0
:1000C000E1210000F1210000FD2100000D220000CF
:1000D0001D220000352800003528000035280000CA
:1000E000F50A0000352800003528000035280000FA
:1000F000352800001D1F0000291F0000351F0000CB
:10010000411F00004D1F0000591F0000651F000027
:10011000711F000035280000352800003528000038
:10012000352800003528000035280000352800005B
:1001300035280000F52700003528000005280000BC
:10014000352800003528000035280000352800003B
:10015000352800003528000035280000352800002B
:10016000352800003528000035280000352800001B
:10017000352800001528000025280000352800003B
:1001800010B5054C237833B9044B13B10448AFF3D1
:1001900000800123237010BDC00A00200000000071
:1001A000205D00000C4B43B10C480D4910B5AFF376
:1001B00000800C48036823B910BD0A48036833B9AE
:1001C0007047094B002BF7D0BDE810401847064B8D
:1001D000002BF5D0184700BF00000000205D000094
:1001E000C40A0020205D00000000000070470020CD
:1001F00070470000014B01221A707047DC0A002092
:1002000013B5054B0093054A054C402300210220FD
:10021000A04702B010BD00BFC1020000F40A0020D8
:10022000E1120000044A00231370044A1370044BC7
:1002300001221A70034B1847E40A0020E00A00204C
:10024000DC0A00200102000010B4044C044B054AF3
:1002500005490648A44610BC604700BF09180000C5
:100260008D02000040000020E00A0020E40A002087
:10027000034B9B89042B02D10248034B184770475C
:10028000900D0020E80A0020352D0000094B588809
:10029000020A032A0CD110F0FF0009D1DA88042ADF
:1002A00007D105499960054919619A810120704774
:1002B00000207047900D0020E80A00207102000025
:1002C00010B540B9402902D10348044B9847044B6C
:1002D000BDE81040184710BDF40A0020332D00007F
:1002E00001020000F0B5164C0646207885B028B310
:1002F000EFF31083B3FA83F35B09039372B6BFF392
:100300005F8F104A104D0021116091802970306874
:100310001060B38893800D4B0093812006230C4E10
:10032000039FB04780F00100207027B101232B709C
:10033000BFF35F8F62B6207880F0010005B0F0BD9A
:10034000DC0A0020EC0A002000010020F50100007A
:10035000E1120000024B9878024B00F07F00184732
:10036000900D00207511000070B5134B1B780BB970
:10037000002070BD114B1B681B681A798242F7D9A7
:100380000F4A13605D8800241D449D4203D8002C51
:10039000EED01360ECE75E78042E09D19E78864299
:1003A00006D1DE788E4203D104B11360012070BD06
:1003B0001C7823440124E8E73C0B0020400B00207C
:1003C000440B0020084B1B681B685A881A440378AA
:1003D0001844904201D3002004E04378042BFAD063
:1003E000052BF4D1704700BF400B00202DE9F041F0
:1003F0000E4B0546984768B10D4B0E4F1C680E4ECC
:100400002046B847044640B18288C1788078B0471A
:100410000028F5D10020BDE8F081084B1B685B681F
:1004200053F82530BDE8F0411B6818476903000008
:10043000440B0020C5030000B9110000400B002050
:100440002DE9F0410021124C0546A04718B90025BE
:100450002846BDE8F0810F4B1B685B6853F82560A8
:10046000F368984701462846A04705460028EED085
:10047000094BDFF82C801C68084F2046C047044613
:1004800010B18078B847F8E773689847E0E700BF95
:1004900069030000400B0020440B0020B917000046
:1004A000C5030000014B1868704700BF440B0020D3
:1004B000004B184781100000F8B50A4C227852B161
:1004C000094E0A4F002533681B681B79E8B2834246
:1004D00005F1010504D8064A002323701380F8BDF6
:1004E000B847F0E73C0B0020400B0020410400001F
:1004F000340B002038B50A4B1B783BB1094D002462
:100500002A6813681979E3B2994200D838BD526855
:1005100052F823301B6903B198470134F0E700BF5C
:100520003C0B0020400B00202DE9F0419D4C0023A6
:10053000A3812361636123785AB2002A05DAE18836
:1005400019B900252846BDE8F08113F060011CD1DF
:10055000002A80F2C580E588BDB113F01F0340F08A
:1005600087806378062B09D0082B7AD06BB9022DCF
:1005700011D18D4829468D4B984752E063881D0A5A
:10058000022D3BD02AD8012D32D0237803F01F034F
:10059000012B00F06981237803F01F03022BD0D1D7
:1005A000834B1B78002BCCD0824FDFF81C820025B8
:1005B0003B681A681279ECB2A242C2D95B6853F860
:1005C0002460F368984701462046C0470028B8D009
:1005D000B368984701350028EAD022E0032D22D0E5
:1005E0000F2DD2D1744B98680028D4D0418802E0F6
:1005F000714B186801786D4B98470DE06E4A116891
:10060000497CDBB29942C6D9526852F83300674B35
:1006100041889847A3685D70E388A2899A4288BFA1
:10062000A38101258EE7DBB2032BAED8DFE813F000
:100630001600410104004401604B0821604A18463D
:10064000164610F8015B22F8025FC51AEDB28D4222
:10065000F7D34900023131705948CCE70421594899
:10066000C9E7012D97D152482946504B984769E771
:10067000012B23D163780A2B87D1012D40F0F48020
:100680004B4B1B78002B00F0EF804A4B26791F68FC
:100690003B681B79B34240F2E78030464A4B9847AB
:1006A000054600283FF471AF7B6853F82630DB68BD
:1006B0009847464B012118701846D6E7022B7FF465
:1006C00064AF6378002B7FF460AF022D7FF463AFDB
:1006D0003F4B207998473F4B2946188018464AE7F8
:1006E00013F01F0340F080806378013B082B3FF636
:1006F0004CAF01A252F823F02B0700008B0500003D
:100700008B0500008B0500001D0700008B05000015
:100710008B0500008B05000047070000E388002BD5
:100720007FF439AF2C4B23617BE7E388002B7FF408
:1007300032AF6588012D7FF42EAF1B4A138823F05A
:1007400002031380FEE6E588002D7FF424AF234BDF
:10075000984700283FF419AF174EA27833685B7CA6
:100760009A423FF712AF1E4B9847A378104A137076
:10077000002B3FF456AF71680E4A1A4F03F1005335
:10078000013B01EBC3031360164633681B681B79FA
:10079000E8B283427FF645AF0021B8470135002813
:1007A000F3D1F2E6900D0020340B0020AD110000D3
:1007B0003C0B0020400B0020A40000209B000020E8
:1007C0007C0000209000002069030000380B00200E
:1007D00059120000360B0020550300009D11000047
:1007E000B9040000ED030000012B1AD163780B2B34
:1007F0007FF4CBAEE388002B36D1314B1B78002B36
:1008000032D025792F4B66882846984700283FF438
:10081000BCAEF1B228462C4B984700287FF401AFBC
:10082000B3E6022B7FF4B1AE6378012B10D0032B1B
:100830007FF4ABAEE388002B7FF4ADAE6388002B72
:100840007FF4A9AE2079214B98472079204B09E00D
:10085000E388002B7FF49FAE6388002B7FF49BAE70
:1008600020791C4B9847D8E7154B1B78002B3FF499
:1008700092AE194B25791E6833681B79AB427FF61F
:100880008AAE00212846154FB84700283FF483AEB2
:10089000736853F82560F368984701462846B847BF
:1008A00000283FF478AEB368984700287FF4B9AECB
:1008B00071E606210A4BC1E607210A4BBEE600BFDE
:1008C0003C0B002041040000ED030000D1130000A8
:1008D000DD1700006D120000400B002069030000CE
:1008E00094000020685B000007B5104B9847104A41
:1008F000D379FF2B00D1FEE7EFF31083B3FA83F334
:100900005B09019372B6BFF35F8F0A4900230B7036
:10091000D37901980133D37120B101230B70BFF358
:100920005F8F62B603B05DF804FB00BFA11A000040
:10093000EC0C0020000100208368DA01FCD4416542
:100940008368DB01FCD470478368DA01FCD4416022
:100950008368DB01FCD4704738B504460D4642F28B
:100960001073A268D10039D46B781B02236442F261
:100970001073A268D20035D4236C43F001032364C2
:1009800042F21073A268D0002FD42B78012B01BF44
:10099000AB781B0443F0040323602B7813B9AB78C6
:1009A0001B042360A368D901FCD42B78012B03D14D
:1009B000A9680F4B204698472B781BB969680D4BE7
:1009C00020469847A368DA01FCD4236843F001036A
:1009D0002360A368DB01FCD4012038BD013BC0D1FA
:1009E000002038BD013BC4D1FAE7013BCAD1F7E78B
:1009F00039090000490900008368DA01FCD4016369
:100A00008368DB01FCD47047134B8268D20106D4A3
:100A100004290BD8DFE801F0071114161900013B77
:100A2000F3D1012070474FF4807303610A4A836851
:100A300013F080730CD1184670474FF48033F4E7FD
:100A40000123F2E74FF00073EFE74FF00053ECE7BC
:100A5000013AECD102207047809698008368DA0151
:100A6000FCD4042907D8DFE801F0030A0D0F1200B7
:100A70004FF48073C3608368DB01FCD470474FF48C
:100A80008033F7E70123F5E74FF00073F2E74FF00B
:100A90000053EFE730B4144D9DF8084045F821208D
:100AA0005DB2002D4FEA041217DB012403F01F038F
:100AB00004FA03F36C09A40004F1604405F16045F5
:100AC00004F5614405F56145D2B2C4F8803185F87A
:100AD00000232360054B30BC184703F00F03044C80
:100AE000D2B2E254F6E700BFFC0C0020090A000075
:100AF00014ED00E0014B5B68184700BFFC0C0020C0
:100B000082B0EFF31083B3FA83F35B09019372B6FB
:100B1000BFF35F8F024B00221A70019802B070473A
:100B200000010020064B01221A60022243F8C02C6B
:100B3000044A0023136153619381034A1370704781
:100B400020520A40900D00204E0B0020034B05223E
:100B50001A70034B4FF400221A6070474E0B0020AE
:100B6000F0510A40024B1B6903B11847704700BFA0
:100B7000900D002028B1034B01221A70BFF35F8F44
:100B800062B670470001002010B5074C235CFF2BB4
:100B9000014600D1FEE7054B9847635C013363547F
:100BA000034BBDE810401847EC0C0020010B00007F
:100BB000750B000010B5074C235C014603B9FEE736
:100BC000054B9847635C013B6354044BBDE8104000
:100BD000184700BFEC0C0020010B0000750B000053
:100BE00038B50546064C28B923780BB1054B984714
:100BF000257038BD20780028FAD1034BF7E700BFF5
:100C0000490B0020B50B0000890B000010B50B4B01
:100C100003221A700A4B5A686FF30E025A60094B8E
:100C20009847094B094901220A601A6008220A60A4
:100C30001A60BDE81040064B184700BF4E0B00205D
:100C4000800B0020010B0000F0510A4060510A4067
:100C5000750B00002DE9F0473249334E8847334B7E
:100C600001221A60B047324B1A78032A8946984607
:100C700005D1304B9847304BBDE8F04718472F4F10
:100C80002F4D3B88AC89E41AA4B2ECB92D4A1188E7
:100C90000B449BB21380EA889A4202D02A4B1B78FD
:100CA00063B1042388F80030C847284A1023136032
:100CB000C2F890303346BDE8F04718476B69ABB1D6
:100CC000984798B13C80AC89072C0FD91E4B002265
:100CD0001A700824C8471E4B1B689B07814609D51C
:100CE000B047042388F80030BDE8F087164B012296
:100CF0001A70EFE7B7F80080A968164B164822462D
:100D000041449847A044154BA7F800805A6864F303
:100D10000E025A600D4A012313604846C2F8903013
:100D2000C8E700BF010B0000750B000020520A400D
:100D30004E0B0020650B0000250B00004A0B002025
:100D4000900D00204C0B0020480B002060510A4001
:100D500030510A40F12D0000A80D0020800B00202A
:100D60002DE9F74F00F00F0B9F4BDFF8A0829F4D4E
:100D70000FFA8BF4824653F82470C0474FF4805327
:100D80000BF1FF3603FA0BFB994B9A49C3F814B0E9
:100D90008847142303FB065393F810E0CDF8008036
:100DA0001EF0010F00F01D810822C7F3021702FA9E
:100DB00007F71AF0800F4FEA440201928E48DFF8DD
:100DC00050828E4A4FEA441C79D084444FF0807E92
:100DD000DCF8043048F824E0C3F30E434FF0010E72
:100DE00042F824E04BB9303A52F8242012F4405F24
:100DF00004BFDCF80430C3F30E034FF0140E0EFBF7
:100E0000065EDEF80C201344DEF80820CEF80C3025
:100E1000934205D19EF810E01EF0020F00F0D08042
:100E2000D31A9BB2620013F4004FDFF8CCE14FEA13
:100E3000021C2FD0C7F50047BBB20EEB0C077A6837
:100E40006FF3DF727A6000EB0C02576863F30E07F2
:100E5000576053686FF31E435360142303FB06551A
:100E6000EA686B68134440F80C30654B4FF48042DD
:100E700043F824204FF0807243F82420009B9847C9
:100E8000012348F824305A4BC3F818B003B0BDE82A
:100E9000F04F08474FF0140909FB06590EEB0C07F9
:100EA00099F81020D7F804E0C2F3400A6AF3DF7E15
:100EB0006FF34102C7F804E089F81020C3E76044EB
:100EC0001EF0040F4168C1F30E094FF0807148F81D
:100ED00024104FF0020142F8241049494FF4804297
:100EE00041F824200BD0D3F804E0D86845499B682A
:100EF0007A1E1A4001EB86117044434B9847142226
:100F000002FB0652D168936849449942D16088BF78
:100F1000D3606100384A090150184068C0F30E40A0
:100F200081454DD1142000FB0650C068834247D054
:100F30001B1A9BB202EB010C13F4004F07F1FF3EAA
:100F400014BFCEF5FF4323EA0E03DCF804E018BF1C
:100F50007F336FF30E0E18BF9BB2BFB2CCF804E024
:100F6000BB424FF0140E0EFB06551FD22B7C43F0F4
:100F700004032B74234D05EB86165650DCF8043021
:100F800067F31E43CCF804301D4A4FF0807342F8DB
:100F90002430009B9847022348F82430144BC3F8B0
:100FA00018B0144B03B0BDE8F04F18476D682844E3
:100FB0005050DCF8042063F31E42CCF80420E3E731
:100FC00014235E43AB19AC591A7C6FF300021A74F8
:100FD0003CB1D96852460020234603B0BDE8F04F2B
:100FE000184703B0BDE8F08F00510A40500B0020B5
:100FF00000500A40750B0000800B002060510A4031
:1010000020520A40100D0020F12D0000010B0000BD
:10101000F0510A4070B5164B9847164B0446012014
:101020009847154BD3F8002822F48042C3F80028D3
:10103000D3F804285204FBD51A6822F480721A608F
:1010400008251022042001219D6199619A6198610F
:101050009D609860D9609A60D3F8002842F480427D
:10106000C3F800282046054BBDE87040184700BF74
:10107000010B0000E10B000000500A40750B00005E
:1010800070B52E4B2E4C2F4E98472F4B0546984748
:101090002E4B2F484FF480225021C3F8802183F833
:1010A00012131A602B4AD2F8883143F00403C2F8B5
:1010B0008831294B9847D4F8003843F08073C4F83E
:1010C0000038D4F8003843F40043C4F80038D4F8AA
:1010D000003823F48043C4F80038D4F800381F4B9C
:1010E0000021602230469847D4F830381C4BC4F8B1
:1010F00030681A7C6FF300021A7493F824206FF39F
:10110000000283F82420236823F48053236023689B
:1011100043F440632360D4F8003843F48043C4F8B8
:101120000038104B00221A7006200F4B98470F4BC7
:10113000984728460E4BBDE870401847010B000049
:1011400000500A40800B0020891D000000E100E0F3
:1011500000000F4000000E40E51E0000252F00009B
:10116000500B0020490B0020890B000015100000D7
:10117000750B0000084B1A6822F080021A601A688A
:1011800000F07F0022F07F0202431A601A6842F0EA
:1011900080021A60704700BF00500A40024B186876
:1011A00000F07F00704700BF00500A40014B98607C
:1011B00099817047900D0020F0B5244B00F00F048A
:1011C000DD690123A3401D423DD124B2204E10F021
:1011D000800F56F82450A2F580604FEAC12180B2FA
:1011E00001F4C05725F4CB5514BF4FF48071002192
:1011F000B0F57C4F25F0140541EA07011ED3082AFB
:101200001FD95200013AB2FA82F2C2F11C0241EA3D
:10121000021222F4D16222F00302D204D20C2A4339
:1012200046F824200B4A4FF0807142F82410A2F5B2
:10123000F8720120D1690B43D361F0BD40F2FF7217
:10124000E1E70F22DFE70020F0BD00BF00500A40B9
:1012500000510A40F0510A40034B00F00F0053F8D0
:101260002000C0F3C0407047C0510A4000F00F009A
:10127000022808B529D803B2154A52F823201103D1
:1012800001D4012008BD134A4FF4002142F8231075
:10129000F03A52F82320520608D50F4A402142F86E
:1012A000231090324FF4802142F823101423013888
:1012B0000A4A584311180B7C13F0010FE1D06FF369
:1012C00000030B7413589847DBE7002008BD00BFEC
:1012D000C0510A4020520A4060510A40500B002081
:1012E0002DE9F74F904600F00F02022A06461F46EE
:1012F0001ED82F4B0120DB699040184055D00FFAC3
:1013000082FA2C4B53F82A0010F4002910D12A4BF2
:10131000541E4FF0140B9847284B294A0BFB04FB33
:1013200003EB0B0595F810E01EF0010402D0904786
:1013300000203AE04EF0010E85F810E0019390474E
:10134000019B0C9A43F80B202B7CC5F8048061F3B9
:10135000410364F382032B743306AF60EC6015D451
:10136000184A52F82A3003F4C053B3F5006F0DD178
:1013700052F82A200823C2F302129340013B3B4259
:1013800004D02B7C64F300032B74D1E70E4B03EBEA
:101390004A1330465A686FF30E025A605A686FF368
:1013A0001E425A60094B9847012003B0BDE8F08FF8
:1013B00000500A40C0510A40010B0000500B0020B1
:1013C000750B000000510A40800B0020610D0000E9
:1013D00070B5194B00F00F019847184A4FF480532D
:1013E0008B405361164B9847164B0DB24FF08072ED
:1013F00043F82520481E144B142444431E19327C04
:1014000012F0010F16D01C596FF3000232748CB128
:101410000E4A52F82520D2054FF0140202FB003389
:1014200048BF41F080010A460120D9682346BDE843
:101430007040184770BD00BF010B000000500A400B
:10144000750B0000F0510A40500B002000510A407B
:101450002DE9F0418E4B5A68550709D504229A6050
:101460008C4B98478C4B9847BFF35F8FBDE8F0815A
:101470005B68DC0440F15B81884B10221A60082213
:101480001A60874A136813F0040F134643D0854C43
:1014900023781BB1844B9847844B9847844B854DE8
:1014A0005B68C3F30E03082B04D0834B98470423D7
:1014B0002B60D9E7814B824E93E80300814B86E88D
:1014C00003009847042118B97B4B98472960CBE764
:1014D000296096F90030002B08DA7B4A002313803C
:1014E0007A4A138002232370794B02E0F38813B900
:1014F000784B9847B8E7744A00231380734A102149
:101500001380012323702960734B9847734B196034
:10151000734B9847A8E71168880751D5614B1B7832
:10152000012B09D0022B01D0042B03D15E4B98472D
:101530005E4BDEE7604BFAE75D4B644F5E68604DE3
:101540003C88AB89A8685D49C6F30E06A219934290
:10155000BCBF1E1BB6B232462044624B344498478F
:10156000A4B2082E3C80534E07D1DFF85C81EA8894
:10157000B8F8003023449A420CDC6B69AC8133B17B
:10158000984720B94C4B9847022333606CE70223FD
:101590003360ADE7AB89A3420DD16B69002BF1D06D
:1015A00098470028EED0B8F800303A881344A8F8DD
:1015B000003000233B800223102133603160A3E719
:1015C0001268D10703D5484A1268D2078CD41A682A
:1015D000170710D5374A082111601B68DE073FF551
:1015E00043AF304B1B78032B7FF43EAF3B4B4FF4A4
:1015F00000221A6038E71A68D50640F198802D4A13
:10160000102111601B689C073FF52EAF254B1B78FE
:10161000012B3FF46DAF042BE6E7012098E008238F
:10162000A360324D0120A8470220A847304B9847BD
:10163000E369304A23F07F03E361236823F07F03EB
:101640002360236843F080032360136823F4CB53A3
:1016500023F014031360164B184A1A605A686FF38C
:101660001E425A60E36943F00103E3610B4B4FF004
:1016700080721A60184B9847184B04221A60022295
:101680001A604FF48053A361154B984750E700BF91
:1016900000500A40F5040000312D000020520A409D
:1016A00030510A404E0B0020650B0000250B000056
:1016B000800B002060510A404D0B0000A80D002057
:1016C000900D0020290500004C0B00204A0B002043
:1016D000550C00000D0C0000010B0000F0510A40F9
:1016E000750B0000F12D0000C0510A40D11300001D
:1016F000B904000000510A402B4B1A69D0067FF54F
:10170000B3AE5A68D1067FF5AFAE10229A60D3F817
:10171000002822F48042C3F80028D3F80428520499
:10172000FBD5012010225A619860986139E01E4B68
:101730001A6912F4005F1A4603D05B6898043FF5FB
:101740006CAF136959040ED553685B040BD50220A6
:1017500003B2164A52F82330DF05154B48BF40F05C
:101760008000984780E6104C606810F008007FF415
:1017700056AF2369DE07BFD56368DD07BCD50122FC
:10178000A260D4F8003823F48043C4F80038102352
:101790006261A360A361D4F8003843F48043C4F8C5
:1017A0000038044BDDE700BF00500A4000510A40FA
:1017B000610D0000E10B000010B5064B0446984790
:1017C000054A04F07F04D0690123A34020EA030006
:1017D000D06110BDD113000000500A4008B500F0E0
:1017E0000F03022B09D8064A1BB24FF4002142F81E
:1017F0002310044B9847012008BD002008BD00BFFE
:10180000F0510A40D11300002DE9F041294D2E7806
:1018100016F0800F174606F0600637D006F0FF047A
:101820000EBB6B78062B04D1234B9847837A212B70
:1018300002D00020BDE8F0816B881B0A212BDAB2B0
:101840000BD100F10903AB60437AEA88934228BFC9
:101850001346AB810120BDE8F081C37B9342E8D100
:10186000AF60038AF1E7202CE3D16A78022A06D020
:10187000032A09D0012ADCD1BDE8F0411847A8604D
:101880000120A881BDE8F081A960F9E7202ED0D120
:101890006A780A2A03D00B2A05D0092AEBE76B885D
:1018A0001B0A0370D6E7EB88002BC2D16B880B7044
:1018B000D0E700BF900D0020A504000082B0EFF338
:1018C0001083B3FA83F35B09019372B6BFF35F8FA2
:1018D000024B00221A70019802B0704700010020EC
:1018E00028B1034B01221A70BFF35F8F62B67047B5
:1018F0000001002010B5054B9847054B054A9A6139
:10190000054A1A62BDE81040044B1847BD18000094
:1019100000080E40200000AA11000100E11800009C
:1019200082B0EFF31083B3FA83F35B09019372B6CD
:10193000BFF35F8F024B00221A70019802B070470C
:101940000001002010B50D4B0446984701F1090332
:101950009B000B4A03F47F7343F02A43936123688F
:10196000083102EB810243F00103536028B1054BBB
:1019700001221A70BFF35F8F62B610BD21190000FB
:1019800000080E400001002082B0EFF31083B3FA8C
:1019900083F35B09019372B6BFF35F8F024B0022A2
:1019A0001A70019802B0704700010020034B1A6CB6
:1019B0001043034A9A651864704700BF00000E4048
:1019C000400000AA28B1034B01221A70BFF35F8FB9
:1019D00062B670470001002070B50C4B0C4D0446F8
:1019E0009847A30055F824600122203302FA01F140
:1019F00003F47F73074A314343F02A43936545F864
:101A00002410054BBDE87040184700BF891900003D
:101A100020000E4000000E40C51900000146014B99
:101A200001201847D919000070B5094B04469847A2
:101A3000084B9B6A054613B90520074B9847284673
:101A4000064B984721460220054BBDE870401847D9
:101A50008919000000000E401D1A0000C519000081
:101A6000D919000070B5094B04469847084BDB6A4A
:101A7000054613B90620074B98472846064B98475A
:101A800021460320054BBDE8704018478919000026
:101A900000000E401D1A0000C5190000D9190000F1
:101AA0009A4B984210B500F0F28065D8A3F59023C8
:101AB000984200F0D8802FD8A3F58033984200F0E8
:101AC000C58014D8A3F58033984200F0B58004D8BF
:101AD000B0F1402F00F0AB8010BD8D4B984200F06C
:101AE000AD8003F58043984200F0AE8010BD894B75
:101AF000984200F0AF8005D8A3F57053984200F0EB
:101B0000A78010BD844B984200F0A68003F5F843EF
:101B1000984200F0A38010BD804B984200F0AD8049
:101B200015D8A3F58033984200F0A18005D8A3F51D
:101B30008043984200F0998010BD794B984200F0A4
:101B4000988003F58043984200F0958010BD754B56
:101B5000984200F0968005D8A3F58043984200F0A3
:101B60008E8010BD704B984200F08D8003F580434D
:101B7000984200F08A8010BD6C4B984200F0AB8018
:101B800029D8A3F57C33984200F0928011D8A3F5B0
:101B9000143398427FD004D8A3F58043984278D07C
:101BA00010BD634B984278D003F5806398427AD099
:101BB00010BD604B984200F0828004D8A3F500531A
:101BC000984277D010BD5C4B98427DD003F580538E
:101BD00098427ED010BD594B984200F08A8011D8AF
:101BE000A3F5784398427ED004D8A3F58063984249
:101BF00077D010BD524B984277D003F5806398425E
:101C000075D010BD4F4B98427AD008D8A3F5006329
:101C1000984271D003F5806398426FD010BD4A4B53
:101C200098426FD003F5806398426DD010BD0020BC
:101C3000464BBDE8104018470120F9E70220434B0E
:101C400098475520424BF4E70320F8E70420EFE7DC
:101C50000520EDE70620EBE70720E9E708203B4BEE
:101C600098470420EEE70920F9E70A20F7E70B2060
:101C7000F5E70C20DCE70D20DAE70E20D8E70F208F
:101C8000D6E71020D4E71120D2E71220D0E71320A6
:101C9000CEE71520CCE71620CAE701202D4B984748
:101CA00000202D4BC5E702202A4B98470120F8E77A
:101CB0000220F6E70020274B98470320F1E7042095
:101CC000244B98470420ECE70320224B984705203B
:101CD000E7E70620E5E700210420204BBDE810409F
:101CE00018470121F8E70221F6E70321F4E7042170
:101CF000F2E700210520F0E70121FBE70221F9E7E7
:101D00000321F7E70421F5E70521F3E70000074089
:101D10000000014000C0014000C401400000044038
:101D200000800340004006400080064000000E4056
:101D300000000A4000400A4000500A4000000F40E6
:101D4000000C0E40000C0F4000100F40291A00003C
:101D5000AD1900001D1A0000651A0000D919000015
:101D600010B5064B01469847054B4FF02A429A653D
:101D70001960BDE81040034B184700BF89190000E7
:101D800000000E40C519000013B5114B114C052081
:101D900098470320104B9847636958060CD4636931
:101DA000D9070FD502A80D4B40F8043D00210C4B7C
:101DB000984763695B06FCD541F20103C4F8903093
:101DC00002B010BD074B98476369DA07FCD5E9E715
:101DD000651A000000080E401D1A00001001053FA2
:101DE00045190000F518000070B5144C144B20463E
:101DF00098470123A360E368D807FCD5114B9847A7
:101E0000114A5369D907FCD5002211460F48104BDF
:101E1000104D114C98470120104B9847104A0D481F
:101E2000104B002198472846A047C307FBD50E4B0F
:101E300098470E4BBDE87040184700BF00040A40A9
:101E4000A11A0000F518000000080E400024F4005C
:101E50000920000000000F40FD1E0000611D000071
:101E600080A90300711E000089190000C519000037
:101E70002DE9F347C36923F0030EEFF31083B3FAA0
:101E800083F35B09019372B6BFF35F8F124D134C5E
:101E900000262E7001F00301019FD4F80890D4F8B9
:101EA0000080D4F804A06260052341F00C01236097
:101EB00041EA0E010A4B98472660C4F804A0C4F812
:101EC0000890C4F8008027B101232B70BFF35F8F07
:101ED00062B602B0BDE8F0870001002010E000E02B
:101EE00001000020C369034A0349916143F08073F4
:101EF000C361704700000F401C0000AA4069704792
:101F0000024B53F8203003B118477047B00D002042
:101F10000020014B184700BF011F00000120014BAA
:101F2000184700BF011F00000220014B184700BFE7
:101F3000011F00000320014B184700BF011F0000D4
:101F40000420014B184700BF011F00000520014B72
:101F5000184700BF011F00000620014B184700BFB3
:101F6000011F00000720014B184700BF011F0000A0
:101F70000820014B184700BF011F000005490A68EF
:101F8000002822F0400214BF4023002313430B60BB
:101F9000704700BF00000A40024B986800F0010043
:101FA000704700BF00000A4008B5024A9047002869
:101FB000FCD008BD991F000070B50F4E3368044671
:101FC0000D4698470D4B0E4A5868002DA9BF0D4984
:101FD00020F03F0044F0254401EA0521B6BF40F05F
:101FE00025400C4304435C609B6803F00C031360C2
:101FF0003368BDE870401847FC00002000000A402C
:10200000E00B002000FFFF0010B5114B114CD1B9BF
:102010001149884211D9114A904205D801209847A8
:102020004FF0FF31112004E0012098474FF0FF31BD
:1020300010202346BDE81040184712B1084A9042CC
:10204000ECD90020EBE7074A9042FAD9E6E700BF57
:102050007D1F0000B91F000080A812010051250259
:10206000001BB70000127A002DE9F84F440204F17A
:10207000804404F56124DFF850A0D4F8D060DFF884
:102080004C800746894600254FF0010BDAF80030F6
:102090009D4205D306EA0906C4F8D860BDE8F88F6A
:1020A00058F83530B7EB531F4FEAC5020AD103F099
:1020B0001F030BFA03F3334204D008EB02035B68FF
:1020C00003B198470135E1E7140C0020E40B002030
:1020D000F0B5264C2768052F40D800F01F050123D6
:1020E00003FA05F515F0FF0F34D115F47F4F07D132
:1020F00015F47F0F30D115F07F4F0CBF042303235D
:10210000450903EB85031A4E1933DBB25DB246F87D
:10211000370006EBC706002D71604FEA02121FDB85
:10212000012103F01F0301FA03F36909890001F19A
:10213000604105F1604001F5614100F56140D2B2B6
:10214000C1F8803180F800230B60236801332360DD
:102150000120F0BD0023D3E70223D1E70020F0BD2A
:1021600003F00F030349D2B2CA54EEE7140C002067
:10217000E40B002014ED00E0FF210020004B184785
:10218000692000004FF47F410020014B184700BF39
:10219000692000004FF47F010020014B184700BF69
:1021A000692000004FF07F410020014B184700BF1D
:1021B00069200000FF210120004B18476920000022
:1021C0004FF47F410120014B184700BF69200000F8
:1021D0004FF47F010120014B184700BF6920000028
:1021E0004FF07F410120014B184700BF69200000DC
:1021F000FF210220004B1847692000004FF47F4167
:102200000220014B184700BF692000004FF47F01F6
:102210000220014B184700BF692000004FF07F41AA
:102220000220014B184700BF692000000F2888BF1B
:102230000020800100F1804000F52220704700005E
:1022400008B50A4B9847C369C26A13F001000CD065
:10225000510707D4930707D412F0010F14BF0220CF
:10226000012008BD042008BD032008BD2D22000068
:1022700010B5054B04469847044B53F8243013B16E
:10228000BDE81040184710BD41220000D40D0020C9
:102290000020014B184700BF712200000120014BB4
:1022A000184700BF712200000220014B184700BFF1
:1022B000712200000320014B184700BF712200006B
:1022C0000420014B184700BF712200000520014B7C
:1022D000184700BF712200000620014B184700BFBD
:1022E000712200000720014B184700BF7122000037
:1022F0000820014B184700BF712200000920014B44
:10230000184700BF712200000A20014B184700BF88
:10231000712200000B20014B184700BF7122000002
:102320000C20014B184700BF712200000D20014B0B
:10233000184700BF712200000E20014B184700BF54
:10234000712200000F20014B184700BF71220000CE
:10235000084B984209D0A3F58043984207D0A3F5D3
:10236000B823C31A584258417047032070470220CF
:10237000704700BF00C00740F7B54FF4FA63019300
:10238000924B024698479249D36951F82040234026
:1023900013F4A06F19D013F4807F8E4B14BF6FF02D
:1023A00003016FF001011954136923F40043136111
:1023B000D36823F40043D3604FF0FF33D3625362FA
:1023C000854B00221A5403B0F0BDDF076AD5834E57
:1023D000546956F82030E4B203F8014B804C46F8BB
:1023E000203054F82030013B44F8203054F820705D
:1023F000002FE8D1784D2B5C002B45D0794B53F85A
:1024000020E0BEF1000F3FD0DFF8E8E15EF82010D9
:1024100046F8201053F82060FF2E26D9FF2644F8F6
:10242000206031444EF8201053F82010FF3943F853
:10243000201053F8201029B34FF4FA61019111696B
:102440000E0419D4D16853F8204021F03F71FF2CBD
:1024500021F4483100F2AF8053F820301B0441F4DE
:10246000804103F47F03194372E053F8201044F8CD
:10247000201043F82070DCE701994C1E01940029DC
:10248000DDD1DFE729549EE70123536200232B545B
:102490000823D362136251F8203043F0080341F857
:1024A000203090E79D0740F18B804F4C54F820304E
:1024B0004BB9022353624B4B53F82030002BE7D12A
:1024C000454C2354E4E7494E56F82030591C1B78FC
:1024D00046F82010DBB2936154F82030013B44F8F9
:1024E000203054F82070002F7FF46DAF3A490B5C18
:1024F000002B3ED03E4B53F82050002D39D0DFF852
:10250000F8E05EF8205046F8205053F82060FF2E87
:1025100020D9FF2644F8206053F820403544FF3C82
:102520004EF8205043F8204053F82040FCB14FF4BF
:10253000FA61019111690C0413D4D16853F8204059
:1025400021F47F01FF2C21F4005185D941F47F0152
:10255000116138E753F8205044F8205043F82070B8
:10256000E2E701994C1E01940029E3D1E5E70C5400
:1025700029E70B5C002B3FF426AF1A4C54F82030AF
:10258000002B3FF420AF4FF4FA6301931369190451
:102590000BD4D16854F8203021F03F71FF2B21F487
:1025A000483108D854F8203058E7019B591E019152
:1025B000002BEBD1EDE741F03F7141F44031C7E72B
:1025C0001B0742BF0823D3625362FCE6512300007D
:1025D0005C0C0020580C00206C0C0020380C0020F3
:1025E000900C0020700C0020A00C0020480C002053
:1025F000800C0020180C0020280C002030B5B2FB05
:10260000F1F200255208FF2AE9B207D90135092D58
:1026100002D16FF0070030BD5208F4E70829F8D066
:102620005108140404F47F04521A1B060C4303F0EF
:1026300070631202234392B22D071A4305F0E0455E
:102640002A434260002030BD30B5B2FBF1F20025D4
:102650005208FF2AE9B207D90135092D02D16FF0DE
:10266000070030BD5208F4E70829F8D051081404D7
:1026700004F47F04521A1B060C4303F07063120229
:10268000234392B22D071A4305F0E0452A438263A3
:10269000002030BD70B5334B05460C4698470123EA
:1026A0002B6080232B604FF0FF33EB62A27B12B1D3
:1026B00010222A60AB606168002949D1A16831B15C
:1026C000637B2268284E2846B047002847D16168BE
:1026D000264B227C994294BF4FF000514FF040515D
:1026E000E37B12041B0602F4E02203F04073134361
:1026F000A27C02F007021343627C120202F44072D1
:1027000013430B43EB63E37CE27D1B0602F00702FD
:1027100042F0805203F040731343627D120402F4CE
:10272000E0221343227D120502F440121343A27DDE
:10273000120202F4407213432B640D4A002319461F
:1027400099540133072BFBD10123D371002070BDB5
:10275000237B2268074E2846B0470028AED06FF092
:10276000070070BDA11A0000492600003F420F007B
:10277000EC0C0020FD25000070B51E46194B0546E7
:102780009847194B9D4226D0A3F580439D4224D003
:10279000A3F5B8239D4222D0144CA5420CBF3D2482
:1027A0000024134B43F8202004F01F020123934020
:1027B0006209920002F1604204F1604402F5614254
:1027C000360104F56144F6B2C2F8803184F8006342
:1027D0001360296270BD4E24E3E74D24E1E73F24F6
:1027E000DFE700BF5123000000C007400080014028
:1027F000140E0020014B02481B681847140E0020DD
:1028000000800140014B02485B681847140E00200D
:1028100000C00140014B02489B681847140E00207D
:1028200000800740014B0248DB681847140E002067
:1028300000C00740FEE7000008B50F4A0F4B9A4260
:102840000ED10F4B0F4A0021934212D30E4B0F4A69
:1028500023F07F0393600E4B98470E4B9847FEE79B
:102860000D49043A8B42ECD252F8040F43F8040BA2
:10287000F8E743F8041BE7E7205D000000000020B4
:10288000C00A00204C0E00200000000000ED00E017
:10289000792D0000392D0000B00A0020074B1A687E
:1028A0000AB9074A1A601A68064910448142A6BF4D
:1028B000186010464FF0FF30704700BFB00C00208A
:1028C000501E0020FC7F00204FF0FF3070474FF477
:1028D00000534B6000207047012070470020704774
:1028E00000F01F02400900F5001000F5E160400211
:1028F000012393400A074CBF43678367CA064CBF56
:10290000C0F88430C0F888304A064CBFC0F8C430E4
:10291000C0F8C8300A064CBFC0F80431C0F808310E
:10292000CA074CBF436183618A074CBF436283621D
:102930004A074CBF436383637047000030B5184BB0
:10294000184919481A6E91F9003090F9005002F0B8
:1029500030025B00C2F3001443EAC503520913437B
:1029600043EA84030E2B0A709DBF44F28212DA40C0
:10297000D2430122D207047004D40C4A1388013BCD
:10298000138030BD0D2B9DBF42F6140222FA03F3D3
:10299000DB430123DB07F4D4044A13880133EFE758
:1029A00000100E40B50C0020B40C0020B60C002026
:1029B00086B03F4B00224FF440710392049205927F
:1029C00099654FF480515965186E3A490840039053
:1029D0004FF4885098654FF400705865186E0840A1
:1029E00005904FF4905098654FF4807058651B6EB9
:1029F0000B400493ADF80620039B03980399039AB8
:102A0000400A00F00200C3F3C023490E034301F063
:102A10000401520E0B4302F0080213430293029B7F
:102A2000BDF8062013439BB2ADF80630049B049812
:102A30000499049A400A00F00200C3F3C023490E2F
:102A4000034301F00401520E0B4302F0080213434A
:102A500002930299BDF806309AB2174B03EA0113AC
:102A600013439BB2ADF80630059B05980599059A6E
:102A7000400A00F00200C3F3C023490E034301F0F3
:102A80000401520E0B4302F0080213430293029911
:102A9000BDF806309AB2094B03EA012313439BB2F7
:102AA000ADF80630BDF8060080B206B0704700BF32
:102AB00000100E40000C0018F0FF0F0000FFFF0098
:102AC00010B5012109480A4B98470A4B98470A4A12
:102AD0000A4B1188A3F803100021A3F8010011800C
:102AE0001846BDE81040064B184700BF00080F40CD
:102AF0005D0A0000B1290000B60C0020F40C002093
:102B0000E50200002DE9F043624C634B634DDFF8B2
:102B1000B49187B0204698474FF400536364C4F8DB
:102B2000683163654FF000436364C4F868316365DE
:102B30004FF080436364C4F8683163654FF48043A9
:102B40006364C4F8683163654FF400436364C4F898
:102B5000683163654FF4803363640426C4F86831D8
:102B600063654FF000536664C4F86861666563642A
:102B7000C4F8683163654FF480736364C4F86831E6
:102B8000A3654FF400736364C4F86831A3654FF420
:102B900080536364C4F86831A3654FF40063A36491
:102BA0005021C4F864310B20A8474FF48063A3641C
:102BB0005021C4F864310A20A8474FF00063A36491
:102BC0005021C4F864311B20A8474FF08053A36400
:102BD0004FF020081027C4F8643150211C20A8476A
:102BE000C4F848804821C4F864810520A764C4F86B
:102BF0006471A847C4F8A88048213046C4F8B8805A
:102C0000A847C4F8A8700122C4F8B8702449052068
:102C1000C84718B92348244B9847FEE701222049AA
:102C20003046C8470028F5D0C4F894803146C4F82F
:102C300094701520A8474FF40013A3603146162066
:102C4000A8474FF48003A36000211920A8474FF044
:102C50000073A36000211A20A8474FF08063A3608F
:102C6000124A134B134800248DE80C006946124B9E
:102C70008DF80E4002948DF80C408DF80D40984769
:102C8000214601230D4A0B480D4CA04707B0BDE873
:102C9000F08300BF00100E40A11A0000E1280000E0
:102CA0003D290000705B0000C92D00000024F400E5
:102CB000801A060000800740952600007923000056
:102CC00079270000D120000010B586B00023022231
:102CD0008DF80C308DF80D20049313220D480E4B07
:102CE0008DF80E20984703A90C4B0A480C4C9847C6
:102CF000122108480B4B9847052300930A4A0548C0
:102D000028230121A04718B9084B4FF000429A65CB
:102D100006B010BD00080F40E90800005909000086
:102D2000950A0000F9090000C12A000000100E40B9
:102D3000704770477047000008B5094B9847094B2A
:102D400001221A70BFF35F8F62B6074B9847074B9B
:102D50000B221A70064B9847064B9847FEE700BFB8
:102D6000E91D000000010020052B0000F40C0020EC
:102D7000B1040000C92C000070B50F4E0F4D761B3A
:102D8000B61018BF002405D0013455F8043B98470D
:102D9000A642F9D10A4E0B4D761B02F0ABFFB610DE
:102DA00018BF002406D0013455F8043B9847A642CA
:102DB000F9D170BD70BD00BF005D0000005D000076
:102DC000085D0000005D00000FB400B5074983B046
:102DD00004AB086853F8042B8168019300F030F9C4
:102DE00003B05DF804EB04B0704700BF040100209D
:102DF000844641EA000313F003036DD1403A41D306
:102E000051F8043B40F8043B51F8043B40F8043BC4
:102E100051F8043B40F8043B51F8043B40F8043BB4
:102E200051F8043B40F8043B51F8043B40F8043BA4
:102E300051F8043B40F8043B51F8043B40F8043B94
:102E400051F8043B40F8043B51F8043B40F8043B84
:102E500051F8043B40F8043B51F8043B40F8043B74
:102E600051F8043B40F8043B51F8043B40F8043B64
:102E700051F8043B40F8043B51F8043B40F8043B54
:102E8000403ABDD2303211D351F8043B40F8043BF4
:102E900051F8043B40F8043B51F8043B40F8043B34
:102EA00051F8043B40F8043B103AEDD20C3205D304
:102EB00051F8043B40F8043B043AF9D2043208D0FC
:102EC000D2071CBF11F8013B00F8013B01D30B886E
:102ED00003806046704700BF082A13D38B078DD04C
:102EE00010F003038AD0C3F10403D21ADB071CBF1E
:102EF00011F8013B00F8013B80D331F8023B20F888
:102F0000023B7BE7043AD9D3013A11F8013B00F8C0
:102F1000013BF9D20B7803704B7843708B78837048
:102F20006046704770B4860746D0541E002A41D0D0
:102F3000CAB2034602E014F1FF343BD303F8012B7D
:102F40009D07F8D1032C2ED9CDB245EA05250F2CCB
:102F500045EA054519D903F110022646103E0F2E09
:102F600042F8105C42F80C5C42F8085C42F8045CE1
:102F700002F11002F2D8A4F1100222F00F0204F0C4
:102F80000F041032032C13440DD91E462246043A76
:102F9000032A46F8045BFAD8221F22F00302043207
:102FA000134404F003042CB1C9B21C4403F8011B00
:102FB0009C42FBD170BC704714460346C2E700BF79
:102FC0002DE9F84F4B6E9C0493462FD593681268F9
:102FD00053B30E46074602F1080919E920045FEAD7
:102FE0009A0817D0043D002401E0A04510D03246D5
:102FF00055F8041F384601F0BBF8431C04F10104E6
:10300000F3D10023CBF80830CBF80430BDE8F88FBB
:10301000DBF808302AF0030AA3EB0A03CBF80830E8
:1030200009F10809002BD8D10020EAE701F00AFADB
:103030000023CBF80830CBF80430BDE8F88F00BF90
:103040002DE9F04FADB01D468B4690460793069094
:1030500018B1836B002B00F0F380DBF86430BBF910
:103060000C00DF0781B202D48E0540F1FC808C0495
:103070000AD4DBF8643040F4005123F40053ABF879
:103080000C10CBF8643089B2080740F1B380DBF84C
:103090001030002B00F0AE8001F01A030A2B00F074
:1030A000B58000230DF170090B93119310930393D6
:1030B000CDF83C90CA46CDF810B098F800304446A0
:1030C000FBB1252B02D11CE0252B03D014F8013FC6
:1030D000002BF9D1A4EB08059DB1109B119ACAF8F9
:1030E000008001332A44072BCAF804501192109330
:1030F0007ADD002A40F0B084039B10922B44CA462C
:1031000003932378002B00F0E08300204FF00003AE
:103110008DF8373004F1010862780546064603460B
:103120004FF0FF3408F10108A2F12001582900F204
:10313000DE82DFE811F02102DC02DC022902DC027F
:10314000DC02DC02DC02DC02DC0289029502DC0229
:10315000A200BD02DC029F01A401A401A401A401FC
:10316000A401A401A401A401A401DC02DC02DC028C
:10317000DC02DC02DC02DC02DC02DC02DC02B2018A
:10318000DC02DC02DC02DC02DC02DC02DC02DC024F
:10319000DC02DC029701DC02DC02DC02DC02DC0285
:1031A0009B01DC02DC025302DC02DC02DC02DC02FA
:1031B000DC02DC02DC02DC02DC02DC025A021B0262
:1031C000DC02DC02DC026E021B02DC02DC027302A7
:1031D000DC02F50182010902D702DC029A02DC025C
:1031E000A700DC02DC022E020AF1080A039B2B4432
:1031F000039386E75946069800F0ACFD18BBBBF870
:103200000C1001F01A030A2B7FF44BAFBBF90E3000
:10321000002BFFF646AFDBF86430DB0705D48F05E3
:1032200003D4DBF8580001F0C3FA2B464246594656
:10323000069800F04DFD039003982DB0BDE8F08F87
:1032400000F0F4FE09E7DBF86430D90704D4BBF8DA
:103250000C309A0540F1AA844FF0FF330393039892
:103260002DB0BDE8F08FDBF8580001F09FFABBF9F4
:103270000C0081B2FBE67642079243F0040398F813
:1032800000204FE708969E0600F150840799DD065E
:103290000A4600F1EF83580640F1EC830E880431B2
:1032A0000027012207914FF000018DF8371000250B
:1032B000611C00F0168123F08001029156EA07019B
:1032C00040F01481002C40F05C83002A40F0B7836A
:1032D00013F00103059300F057840DF1B00B302378
:1032E0000BF8413D059BA342B8BF234601930DB1A6
:1032F00001330193029B13F00203099302D0019B57
:1033000002330193029B13F084030A9340F0178267
:10331000089B019A9D1A002D40F31182102D40F355
:103320009084109B119AC44ED6461027A246194687
:10333000069C07E001F1020C0EF1080E0146103D5B
:10334000102D11DD481C1032072811928EE8C000A4
:103350001090EFDD002A40F0E481103D102D114661
:103360004FF0010CCE46EDDC54466146F2462A444D
:1033700007291192CAF80060CAF80450109100F3AE
:10338000EC829DF837500AF1080A481C002D40F0E5
:10339000DE81099B002B00F0F88102320EA9022386
:1033A0000728119210908AE80A0040F3EA81002A67
:1033B00040F08C830A9B802B4FF001001146CA46D7
:1033C00040F0E781089B019D5E1B002E40F3E181E8
:1033D000102E9A4D40F35084D4461027A246069CE6
:1033E00007E001F1020E0CF1080C0146103E102E10
:1033F00011DD481C1032072811928CE8A0001090B3
:10340000EFDD002A40F09D82103E102E4FF0010E9D
:103410001146CC46EDDC5446E2463244BEF1070F7D
:1034200011928AE86000CDF840E000F369830AF168
:10343000080A0EF101007146ABE1089613F0200274
:1034400040F08C8313F0100140F01A8313F0400217
:1034500000F0168307980A46014604310688079152
:10346000002720E7089643F01003E7E7089643F0AB
:10347000100308E743F0800398F8002052E6A2F119
:103480003001002618F8012B06EB860601EB4606F4
:10349000A2F130010929F5D946E60896002840F046
:1034A000088443F010039E0600F14C83DD0600F112
:1034B000F382580640F1F082079DB5F900602A4674
:1034C000F7170432304639460792002871F100029E
:1034D000C0F25D83611C9DF837504FF001027FF40C
:1034E000EAAE56EA070100F04D820293012A00F08D
:1034F0008C82022A40F05C820B98CB46330906F09E
:103500000F0143EA07733A091E461746435C0BF85E
:10351000013D56EA0703F1D1A9EB0B030593E1E660
:10352000002840F0C083990600F16783DA0600F1B5
:10353000F1805B0640F1EE80079A1368043207922F
:10354000BDF80C201A80B8E507983D4A08960B9202
:1035500006687822302104308DF8392043F00203C8
:10356000079000278DF8381002229CE60896002864
:1035700099D08DF8375096E798F80020002D7FF409
:10358000D1AD01202025CDE543F0010398F80020BE
:10359000C8E50896002840F0938329490B919F06BF
:1035A00000F1E8820798DE06014600F170825D06B0
:1035B00040F16D820431068807910027D80740F159
:1035C000228256EA070100F01E8230218DF8392050
:1035D00043F002038DF83810022264E608960028B2
:1035E00040F06B8317490B91D9E7079908960A6851
:1035F0008DF848204FF000000A468DF8370004325D
:1036000001200190079205900DF1480B02930024D0
:1036100070E643F0400398F8002083E598F8002016
:103620006C2A03BF98F8012043F0200308F1010839
:1036300043F0100376E500BFC05B0000D05B0000E4
:10364000A45B0000905B000007990E680A46002EFC
:1036500002F10402FFF60FAE079298F8002061E530
:1036600098F8002001202B255CE507990896D1F8F1
:1036700000B04FF000028DF837200E1DBBF1000F97
:1036800000F0E582671C00F0C48222460021584603
:10369000019301F0CDFB019B002800F0E582A0EB37
:1036A0000B020592079602939DF83750002419E605
:1036B00098F800202A2A08F1010700F0E982A2F117
:1036C00030010929B8464FF000043FF62DAD18F837
:1036D000012B04EB840401EB4404A2F1300109291D
:1036E000F5D921E543F0200398F800201AE5089663
:1036F000002840F0DB82002A00F0E78001218DF8ED
:1037000048204FF0000201918DF8372005910DF10E
:10371000480B7BE7079A136804320792039A1A60F2
:10372000CBE40FAA04992046FFF74AFC002840F09A
:1037300039811099119A01F1010CCE46FFE51099DB
:10374000119A481C9DF83750002D3FF422AE0132EB
:103750000DF137050121072811921090CAF8005089
:10376000CAF8041040F30881002A40F0BC81099B8C
:10377000002B3FF41FAE0EAB022208461C931D9295
:10378000CA4601460AF1080A01300A9B802B3FF421
:1037900019AE059BE41A002C2EDD102CB34D1EDD56
:1037A000D6461026069FDDF810A006E0881C0EF114
:1037B000080E1946103C102C10DD4B1C1032072B44
:1037C00011928EE860001093F0DD002A65D1103C64
:1037D000102C4FF001001146CE46EEDCF24622449A
:1037E00007281192CAF80050CAF80440109000F35C
:1037F00085800AF1080A01300599CAF800B00A4428
:1038000007281192CAF80410109040F38280002A11
:1038100040F01881029B1092580735D5089B0199FA
:103820005C1A002C40F3E780CA46102C40F3188243
:1038300010998F4E069FDDF810B0102506E0881C09
:103840000AF1080A1946103C102C11DD4B1C1032ED
:10385000072B1192CAF80060CAF804501093EEDDED
:1038600042BB103C102C4FF001001146CA46EDDC63
:10387000224407281192CAF80060CAF80440109048
:1038800051DD002A40F09B81039B089A01998A42EE
:10389000ACBF9B185B1803934EE00FAA5146384605
:1038A000FFF78EFB002840F03F811099119A481CC9
:1038B000CE467FE70FAA59463846FFF781FB60B92D
:1038C0001099119A481CCA46BDE7119BDDF810B04B
:1038D000002B40F0D48100231093DBF8643013F008
:1038E000010FBBF80C3002D19A0540F1DE805B0677
:1038F0003FF5B2AC03982DB0BDE8F08F002A40F040
:103900000681059A1D9201231192CDF870B0109393
:10391000CA460AF1080A029B590704D5089B019977
:103920005C1A002C81DC039B089901988142ACBF92
:103930005B181B18039372BB00231093CA46FFF752
:10394000BCBB0FAA04992046FFF73AFB50BB109965
:10395000119A01F1010ECC4648E5002A40F0408161
:103960009DF83710002900F01B8101220DF137016D
:1039700010461D921C91CA4601460AF1080A013000
:1039800007E5029B012A00F09880022A0DD10293DC
:1039900000260027B0E50FAA04990698FFF710FB50
:1039A0000028C9D0DDF810B097E702930026002761
:1039B000494600E05946F20842EA4772F80806F024
:1039C000070307461646303356EA070201F8013C62
:1039D00001F1FF3BEED1029AD6077FF59DAD302B6A
:1039E0003FF49AAD023930230BF8013CA9EB0103F7
:1039F00005938B4676E4039B089A8A42ACBF9B18DA
:103A00005B18039398E702224DE4002F08BF0A2EAB
:103A100052D3CB46304639460A22002301F00CFF30
:103A200030320BF8012D3046394600230A2201F0CE
:103A300003FF06460F4656EA0703EBD16CE50594F3
:103A4000CB464FE40FAA04990698FFF7B9FA00286D
:103A5000A8D1119ACA465EE70FAA04990698FFF703
:103A6000AFFA00289ED1CA46FFF7C0BBD05B00006A
:103A7000C05B00000431166807910122002712E4A0
:103A80000798014604310668079100270BE40E6889
:103A900004310791002791E507990E680A46F71748
:103AA00004320792304639460FE5DBF8580000F043
:103AB0007FFEBBF80C301AE7029B02930DF1B00BAE
:103AC000303601230BF8416D05930BE40FAA0499DE
:103AD0000698FFF775FA00287FF464AF1099119AE1
:103AE000481CCA4651E60FAA04990698FFF768FADF
:103AF00000287FF457AF1099119A481CCA4648E431
:103B0000002A40F0918001201146CA4641E60FAAE2
:103B100004990698FFF754FA00287FF443AF1098F1
:103B2000119A0130CA4667E6D346D6E6079E0736A5
:103B300026F0070202F10801D2E90067079101228D
:103B4000FFF7B1BB079E073626F00706D6E900014E
:103B500006F10802079206460F46B6E4079E0736AE
:103B600026F0070202F10801D2E90067079100225E
:103B7000FFF799BB079E073626F0070101F1080001
:103B80000790D1E9006719E5CB46FFF7ABBB2D25C0
:103B9000764267EB47078DF837500122FFF788BB65
:103BA000099BB3B911460120CA46F2E5DBF858007B
:103BB00000F0FEFD4FF0FF330393FFF750BB0FAA59
:103BC00004990698FFF7FCF900287FF4EBAE119AF0
:103BD000A9E60EAB02221C931D920120CA46D0E535
:103BE0000FAA04990698FFF7EBF900287FF4DAAEE4
:103BF0001099119A481CCA46A4E5079A03991368BC
:103C0000CD170846043229460792C3E90001FFF7A1
:103C100054BA58460796029301F0D2FB002405904F
:103C20009DF83750FFF75EBB0FAA04990698FFF77F
:103C3000C7F900287FF4B6AE1099119A481CCA46FD
:103C4000A7E51099119A204E0131FFF790BB062C81
:103C500028BF0624059407960194DFF870B0D5E4D8
:103C60001098194E013003E605949DF837500796D9
:103C700002930446FFF736BB8646FFF7CEBB069895
:103C80000FAA5946FFF79CF900283FF424AE24E61A
:103C9000079998F801200C68043144EAE474B846A6
:103CA0000791FFF73FBA8DF837503CE48DF8375055
:103CB00021E58DF83750FFF7F4BB8DF8375091E4CC
:103CC0008DF8375069E400BFC05B0000B85B0000AE
:103CD0002DE9F0410C46ADF58D6D8989666EE5895B
:103CE000199621F002010646E069ADF80C1017465E
:103CF0004FF48061626AADF80E5098461AAD002309
:103D0000079016A8099206930095049502910591D3
:103D100000F048FD43463A4669463046FFF790F9C1
:103D2000051E07DB3046694600F028F9002818BF59
:103D30004FF0FF35BDF80C305B0603D5A38943F087
:103D40004003A381169800F02FFD28460DF58D6DD8
:103D5000BDE8F08138B5304B1B6805460C4613B101
:103D60009A6B002A38D0B4F90C2093B218070CD5FE
:103D70002069A8B113F001021ED0636900225B42E2
:103D8000A361A260F0B1002038BDD9063CD5580728
:103D900026D4206942F00803A3819BB20028E9D110
:103DA00003F42072B2F5007FE4D02846214600F0EB
:103DB0002FFDA3892069DDE7990758BF6269A260DA
:103DC0000028E0D1B4F90C301A06DDD543F04003E9
:103DD000A3814FF0FF3038BD184600F027F9C2E745
:103DE000216B51B104F14003994204D0284600F000
:103DF00043FAB4F90C200023236300232069636095
:103E000022F024022060C5E742F0400209232B6023
:103E10004FF0FF30A28138BD04010020024B13B1E6
:103E2000024800F005B87047000000009D40000007
:103E3000002301461A46184601F0D6BBB1F90C30F2
:103E40009AB22DE9F0410D46110780463AD46A68CE
:103E500043F40063002AAB816FDDAC6A002C49D0CB
:103E600000229BB2D8F80060C8F8002013F48052FA
:103E700067D02A6D5F0705D569682B6B521A0BB1A5
:103E8000EB6BD21A0023E9694046A047441C3CD0A2
:103E9000B5F90C302A692A6023F400630022AB8153
:103EA000DB046A6047D4296BC8F8006011B305F1E0
:103EB0004003994202D0404600F0DEF9002028631A
:103EC000BDE8F0812E69AEB12C682E6091070CBF61
:103ED0006B690023A41BAB600AE0234632466F6A7D
:103EE000E9694046B8470028A4EB0004064404DD15
:103EF000002CF2DC0020BDE8F081AB8943F04003E8
:103F0000AB814FF0FF30BDE8F081D8F800401D2CA8
:103F1000F3D8194BE340DB4313F00103EDD1B5F9BE
:103F20000C206B6022F400632969AB81DA042960FC
:103F3000B9D5002CB7D12865B5E7EA6B002A8CDC2F
:103F4000D8E70123E9694046A047431C024602D056
:103F5000AB89AC6A8EE7D8F80030002BF8D01D2B67
:103F600001D0162B02D1C8F80060C3E7AB8943F03B
:103F70004003AB81BDE8F0810100402038B50D461B
:103F8000044608B1836BBBB1B5F90C0088B16B6E08
:103F9000DB0701D4810517D520462946FFF74EFFE0
:103FA0006B6EDA07044602D4AB899B0507D5204621
:103FB00038BD0446204638BD00F038F8E4E7A86D67
:103FC00000F0F6FB204638BDA86D00F0EFFBE3E7FC
:103FD000014900F0AFBB00BFD156000010B500236F
:103FE00004468181C281036043608360436603614C
:103FF00043618361194608225C30FEF793FF07484E
:104000000749084A084B2062E4616162A262E362E8
:1040100004F15800BDE8104000F0C4BB215300007B
:104020004553000081530000A153000010B5044621
:10403000124800F0BBFBA26BD2B904F53B731048E9
:10404000C4F8E8320321C4F8E022E063C4F8E412C3
:1040500060680421FFF7C2FF01220921A068FFF771
:10406000BDFF02221221E068FFF7B8FF0123A3631E
:104070000248BDE8104000F09BBB00BF300E00209E
:10408000D13F0000014800F091BB00BF440E00206A
:10409000014800F08DBB00BF440E002038B50A4C2B
:1040A0000A4D641BA4100AD004F18043013B05EBC8
:1040B0008305013C55F804399847002CF9D1BDE837
:1040C000384001F021BE00BF185D0000145D000003
:1040D0002DE9F04782B080468946144600F054FB33
:1040E000012836D04A4604F15C0301A9404601F09C
:1040F0002DFA421C064625D0A8B39DF804E0002501
:104100000DF1040A09E023685A1C226083F800E0DC
:104110000135B54227D215F80AE0A368013B002B10
:10412000A360F0DAA769BB4271462246404602DB33
:10413000BEF10A0FE7D101F0B1F9431CE8D102B09A
:10414000BDE8F087A38943F04003A38102B0BDE836
:10415000F08709F1FF33FE2BC4D85FFA89FE0646CB
:104160008DF804E0CBE7484602B0BDE8F08700BF19
:1041700030B5536E13F0010FB2F90C30144683B012
:1041800005469AB201D190051CD5900406D4626E02
:1041900043F4005342F40052A3816266284622464B
:1041A000FFF796FF636EDA07054602D4A3899B05E5
:1041B00002D5284603B030BDA06D00F0F9FA2846BC
:1041C00003B030BDA06D019100F0F0FAB4F90C30ED
:1041D00001999AB2D9E700BFF8B5244F0C460646BC
:1041E00000F0DAFEBB685D68C4F57E610F3125F032
:1041F0000305294421F47F6121F00F01A1F58054CA
:10420000B4F5805F07DB0021304601F077F8BB682A
:104210002B44984204D0304600F0C4FE0020F8BD84
:104220006142304601F06AF801300DD0104BBA6897
:1042300019682D1B45F001053046091B55601960B2
:1042400000F0B0FE0120F8BD0021304601F056F824
:10425000BA68831A0F2BDEDD064C0549246843F04B
:104260000103001B53600860D5E700BFA0060020D3
:10427000B80C0020A80A0020002944D02DE9F04104
:104280000D46804600F088FE55F8047C694927F009
:104290000103A5F10804E2188E685068B24220F0CC
:1042A00003005ED0FE0750600BD455F8087CE41B79
:1042B00001F1080EA56875453B446DD0E768EF60D5
:1042C000BD6015186D68ED073ED543F001026260D0
:1042D000E350B3F5007F17D2DB08581C9A104D68E5
:1042E00051F83070A7600123934001EBC0022B43CB
:1042F000083AE2604B6041F83040FC604046BDE85F
:10430000F04100F04FBE70475A0A042A52D89A0969
:1043100002F13907FF0002F13805C819CA590838F7
:1043200090424FD0516821F003018B4232D2926803
:104330009042F7D1C368A060E3609C60C4604046CF
:10434000BDE8F04100F02EBE95683B4FBD420344EE
:1043500040D0D068E86043F0010285606260E350BD
:10436000B7E7FF07034407D455F8082CA41A1344F1
:10437000A068E268C2609060304A126843F00100B1
:10438000934260608C60B9D32D4B40461968FFF7AB
:1043900023FFB3E71046CDE711184968C90744D495
:1043A0009168D268CA60034443F001009160606084
:1043B000E350A3E7142A16D802F15C07FF0002F1CC
:1043C0005B05AAE7AA1001234D6893402B434B607D
:1043D0000346B0E743F001024C610C61E560A56063
:1043E0006260E3508AE7542A06D81A0B02F16F077D
:1043F000FF0002F16E0590E7B2F5AA7F06D8DA0B4E
:1044000002F17807FF0002F1770586E740F2545089
:10441000824206D89A0C02F17D07FF0002F17C056A
:104420007BE74FF47E777E2577E743F001016160FB
:10443000136063E7A0060020A8060020AC0A002055
:10444000E80C00209368002B73D02DE9F04F8B8986
:1044500083B00C4619070090164626D5226922B370
:1044600013F0020035682CD04FF00009B04FC84659
:10447000B246B84543464A4628BF3B460098B8F185
:10448000000F50D0E169666AB047002858DDDAF8BD
:1044900008301B1A8144A8EB0008CAF80830002B2A
:1044A000E7D1002003B0BDE8F08F21460098FFF768
:1044B00051FC002840F03381A389356813F00200D5
:1044C000D2D113F0010945D14F46019637B39A0571
:1044D000D4F8088040F183804745C346C0F0AB80E4
:1044E00013F4906F40F0AC802068BA465A464946B3
:1044F00000F0EEFCA2682368A2EB08025B44A26015
:104500002360019A9368A3EB0A03D144A7EB0A073F
:104510009360002BC5D0A389002FD8D1D5F8009087
:104520006F680835D2E7D5F80090D5F804800835D3
:104530009FE70020704721460098FFF71FFD70B3EA
:10454000B4F90C3043F040034FF0FF30A38103B0C7
:10455000BDE8F08F814633464E46A8469A464D4602
:104560004EB380B3206823696269B145CB4628BF4A
:10457000B34698425F4604D9A36813449B4500F3B1
:10458000A68093454BDB1346676AE16900982A468B
:10459000B847071ED4DDB9EB0709CCD00120DAF803
:1045A0000830DB1B3D44F61BCAF80830002B3FF4F3
:1045B00078AF002ED5D108F1080313E960009846C2
:1045C0000833002EF9D032460A21284600F030FC8C
:1045D000002800F0A1800130A0EB0509C2E72068A7
:1045E0002369984202D863699F425DD2B84528BFCB
:1045F000B8464246494600F06BFCA3682268A3EB2C
:1046000008034244A36022600BB1C24679E7214609
:104610000098FFF7B3FC002892D1C24671E75A46D2
:10462000294600F055FCA2682368A2EB0B025B440C
:10463000A2602360AFE72068B846BA46BB4655E79C
:1046400062692068216902EB4208A0EB010A08EBCD
:10465000D8780AF101004FEA6808384440454246DC
:1046600084BF804642465B0544D51146009800F061
:1046700019F98346002855D052462169FEF7B8FB48
:10468000A38923F4906343F08003A3810BEB0A001A
:10469000A8EB0A03C4F810B0C4F814802060A3602B
:1046A000B846BA46BB4621E76FF00041B94228BF81
:1046B00039464A4691FBF3F10098666A03FB01F321
:1046C000E169B047B0F1000A3FF71BAF38E71A467F
:1046D0002946019300F0FCFB2268019B00981A44D4
:1046E00022602146FFF74AFC019B00287FF428AF97
:1046F0001F4650E7009800F05BFC83460028C5D1B8
:10470000009D21692846FFF7B7FDB4F90C300C2253
:1047100023F080032A6015E706F1010922E74FF034
:10472000FF30BFE6009A0C231360B4F90C3009E7A0
:1047300000FCFF7F2DE9F84310F538771FD088463D
:1047400006464FF000097D68BC68013D11D4A3897D
:10475000012B05F1FF3508D9B4F90E30013321469C
:10476000304602D0C04749EA00096B1C04F16804D6
:10477000EDD13F68002FE6D14846BDE8F883B94641
:104780004846BDE8F88300BF044B054A1B685B6BD5
:10479000002B08BF134693F828017047040100203E
:1047A00034050020704700BF704700BF704700BF4E
:1047B000704700BF70B50C46B1F90E10002990B0DB
:1047C00015461E4614DB01AA00F0E4FF00280FDBAB
:1047D000029A02F47042A2F50052B2FA82F2520931
:1047E0004FF480634FF4006032602B6010B070BDF6
:1047F000A289002312F08000336004D040221846C2
:104800002A6010B070BD4FF480632B6010B070BD93
:104810008A8992070B4606D501F1430201211A60ED
:104820001A6159617047F0B583B001AB6A460C4616
:104830000646FFF7BFFF00990546304600F032F804
:10484000B4F90C30D8B1019A154F0099F76343F0D1
:104850008003A3812060206161611AB92B43A38189
:1048600003B0F0BD3046B4F90E1000F0A7FFA0B1C0
:10487000A38923F0030343F001031BB2EEE79A057B
:10488000EED423F0030304F1430243F002030121B9
:10489000A381226022616161E2E7B4F90C30DDE7B7
:1048A000D13F00002DE9F04F01F10B06162E83B029
:1048B000054640F29E8036F0070600F1BD80B14209
:1048C00000F2BA8000F068FBB6F5FC7FC0F093827E
:1048D000730A00F0B880042B00F27981B30903F168
:1048E000390003F1380EC300BF4F3B44A3F1080168
:1048F0005C68A14206D10CE0002A80F2AA80E4683C
:10490000A14206D0636823F003039A1B0F2AF3DD4C
:1049100070463C69DFF8E4E2744500F0AB816368FF
:1049200023F003039A1B0F2A00F39081002AC7F893
:1049300014E0C7F810E080F29D80B3F5007F80F0AE
:104940006181DB0803F1010C99107A6857F83C800B
:10495000C4F8088001238B4007EBCC0113430839CE
:10496000E1607B6047F83C40C8F80C4082100124AD
:1049700094409C4200F28B801C4206D120F0030040
:1049800064001C4200F10400FAD007EBC009CC46D9
:104990008046DCF80C309C4507D16DE1002A80F29E
:1049A0007B81DB689C4500F06781596821F0030139
:1049B0008A1B0F2AF2DDD3F80CC0D3F808800093CD
:1049C0009C19284646F0010642F001055E60C8F8D1
:1049D0000CC0CCF808807C613C61C4F80CE0C4F8E1
:1049E00008E065605A5000F0DDFA009B03F108040E
:1049F0001EE0102920D800F0CFFA1026182302203C
:104A0000794F3B44A3F108025C68944200F03D8179
:104A10006368E168A66823F00303234428465A68C4
:104A2000F16042F001028E605A6000F0BBFA083477
:104A3000204603B0BDE8F08F00240C2320462B60F5
:104A400003B0BDE8F08F40204FF400734FF03F0EED
:104A50004AE72344E1685A68A66842F00102F1601F
:104A600028468E605A6000F09DFA0834204603B054
:104A7000BDE8F08F234428465A6842F001025A608C
:104A800000F090FA0834204603B0BDE8F08FBC680F
:104A9000636823F00308B04504D3A8EB06030F2B8B
:104AA00000F38580DFF85891504BD9F800201B683F
:104AB0000132334404EB080A00F0558103F58053BA
:104AC0000F3323F47F6B2BF00F0B5946284600F071
:104AD00015FC411C024600F0FC80824500F2F78084
:104AE000434B19685944196000F04D81D9F8000012
:104AF00001301BBFA2EB0A0A5144C9F8002019601B
:104B000012F0070100F01581C1F10800C1F58051D4
:104B10000244083102EB0B09C9F30B09A1EB0909A7
:104B2000494628460193009200F0E8FB431C9DE8AB
:104B30000C0000F04381801A484440F001001968DD
:104B4000BA604944BC425060196017D0B8F10F0FE9
:104B500040F2FB806068A8F10C0222F0070204EB2F
:104B6000020E00F001004FF0050C10430F2A6060A8
:104B7000CEF804C0CEF808C000F217811D4BBC6807
:104B80001A68914288BF19601B4B1A68914262688B
:104B900088BF196022F003029642A2EB060301D8F7
:104BA0000F2B04DC284600F0FDF9002440E7A21991
:104BB00043F0010346F0010666602846BA60536080
:104BC00000F0F0F90834204603B0BDE8F08F142B54
:104BD00071D9542B00F2A380330B03F16F0003F162
:104BE0006E0EC30080E600BFA0060020E80C002087
:104BF000B80C0020E00C0020E40C0020A8060020E7
:104C0000A80A00205A0A042A5BD9142A00F2AE80AE
:104C100002F15C01C9005B3207EB010C7958ACF181
:104C2000080C8C4500F088804A6822F00302934209
:104C300073D289688C45F7D1DCF80C207B68E26080
:104C4000C4F808C09460CCF80C408FE6A11946F077
:104C5000010C42F00106C4F804C0284679613961AC
:104C6000C1F80CE0C1F808E04E60E25000F09AF99B
:104C70000834DDE67B6879E608F1010818F0030FD7
:104C80000CF1080C7FF485AE2DE0DC68A34208BF70
:104C900002303FF43EAEBBE619441C464A68DB686E
:104CA00054F8086F42F001024A602846F3609E60A3
:104CB00000F078F9BCE603F15C0003F15B0EC30081
:104CC00012E69A0902F13901C9003832A4E7BC4260
:104CD00054D0BC68626822F003025DE759F80839D5
:104CE000994540F0868010F0030F00F1FF30F5D1B8
:104CF0007B6823EA04037B6064009C423FF6C7AEF6
:104D0000002C3FF4C4AE1C4240467FF43EAE64002B
:104D10001C4200F10400FAD037E68C468CE7B3F56C
:104D2000AA7F15D8F30B03F1780003F1770EC300C7
:104D3000DAE54FF48051EDE67B689210012101FA2B
:104D400002F213437B60624679E70123536029E74F
:104D500040F25452934222D8B30C03F17D0003F188
:104D60007C0EC300C0E503F1100BAEE6542A29D82F
:104D70001A0B02F16F01C9006E324DE7204B196822
:104D800059441960B2E6CAF30B0000287FF4AEAEB6
:104D900008EB0B03BA6843F001035360EEE67F2093
:104DA0004FF47E734FF07E0E9EE504F10801284615
:104DB0000093FFF761FA009B1968DFE601204FF0CE
:104DC0000009BCE6B2F5AA7F05D8DA0B02F178013A
:104DD000C900773220E740F254518A4205D89A0C34
:104DE00002F17D01C9007C3216E74FF47E717E220C
:104DF00012E77B6880E7F00806F1080300E600BFD1
:104E0000B80C002082B049B15AB16BB113780B6075
:104E10001278101C18BF012002B0704701A9002AA7
:104E2000F3D1104602B070476FF00100F4E700BF05
:104E300001F0FF01102A2BDB10F0070F08D010F84B
:104E4000013B013A8B422DD010F0070F42B3F6D14F
:104E5000F0B441EA012141EA014122F007047FF068
:104E600000070023F0E80256083C85EA010586EABF
:104E7000010685FA47F5A3FA87F586FA47F6A5FAFB
:104E800087F68EB9EED1F0BC01F0FF0102F0070207
:104E900032B110F8013B013A83EA010313B1F8D1B2
:104EA0000020704701387047002D06BF3546033893
:104EB000073815F0010F07D1013015F4807F02BFCC
:104EC000013015F4C03F0130F0BC0138704700BF1D
:104ED0008842F0B50DD98B1898420AD28418002A5E
:104EE00051D0224613F8014D02F8014D9942F9D1F3
:104EF000F0BD0F2A48D941EA00039B0746D100F1D3
:104F0000100401F11003154653F8106C44F8106CAE
:104F100053F80C6C44F80C6C53F8086C44F8086CAB
:104F2000103D53F8046C44F8046C0F2D03F110038A
:104F300004F11004E8D8A2F1100323F00F0302F0EB
:104F40000F0E1033BEF1030F1944034421D91E1F65
:104F50000D467446043C55F8047B46F8047F032C48
:104F6000F8D8AEF1040424F00304043421442344AB
:104F700002F0030262B1013B0A4411F8014B03F84D
:104F8000014F8A42F9D1F0BD0346F3E70346F2E749
:104F9000F0BD7246EEE700BF0148FFF707BC00BF57
:104FA000340E00200148FFF703BC00BF340E002080
:104FB000002900F095802DE9F04F0D46164683B08C
:104FC000804606F10B07FFF7E7FF55F804EC162FB4
:104FD0002EF00304A5F108093CD810221746BE4262
:104FE0003DD8944243DAC44B996809EB04008842E7
:104FF00000F0B480436823F0010101444968C90707
:105000004CD51EF0010F00F09B8031464046FFF763
:1050100049FC064600283AD055F8043C23F0010329
:105020004B44A0F108029A4200F02181221F242A59
:1050300000F20781132A00F2DB8003462A4611683A
:1050400019605168596092689A6029464046FFF796
:1050500013F91CE027F00707002F3A46BFDA0026B5
:105060000C233046C8F8003003B0BDE8F08F2E4660
:10507000E31B0F2B1ED8D9F8043003F001032343A0
:105080004C44C9F80430636843F001036360404650
:10509000FFF788FF304603B0BDE8F08F23F003032D
:1050A000E11891421FDBC36882682E46D3600C462C
:1050B0009A60DDE7D9F8042009EB070102F001024C
:1050C0004C4443F001031743C9F804704B60636814
:1050D00043F00103083163604046FFF7CDF8D6E79F
:1050E0001146FFF7DFBB1EF0010F8ED155F8081CEB
:1050F000A9EB010ADAF8041021F003010B44234460
:10510000934225DBC26881685646CA609160DAF82E
:105110000C1056F8080F221F242AC160886000F284
:105120009480132A6FD92968CAF808106968CAF8E8
:105130000C101B2A00F2A28008350AF1100263E06D
:1051400055F8083CA9EB030ADAF8041021F0030132
:1051500063189342FFF659AF5646D8E7416821F0ED
:10516000030BA34407F11000834556DA1EF0010F2C
:105170007FF44BAF55F8081CA9EB010ADAF80410CC
:1051800021F003018B445845E2DC5646DAF80C1056
:1051900056F8080F221F242AC160886000F28F8011
:1051A000132A40F28A802968CAF808106968CAF888
:1051B0000C101B2A00F28A8008350AF110022968B7
:1051C000116069685160A96891600AEB0701ABEB57
:1051D000070242F0010299604A60DAF8043003F0F5
:1051E00001031F434046CAF80470FFF7DBFE51E796
:1051F0002B6803606B6843601B2A2DD800F10803FD
:1052000005F108021BE732462968116069685160A0
:10521000A96891601C46D1462AE709EB0701ABEB70
:10522000070B4BF0010299604A6055F8043C03F00B
:1052300001031F43404645F8047CFFF7B3FE2E46AA
:1052400028E72946FFF744FEFFE6294630461C467C
:10525000D146FFF73DFE0BE7AB688360EB68C360A8
:10526000242A17D000F1100305F11002E7E650F8E8
:10527000043C23F003031C442E46F9E6A968CAF84F
:105280001010E968CAF81410242A0CD010350AF15D
:105290001802B9E72B6903616B69436105F11802D4
:1052A00000F11803CBE62A69CAF818206A69CAF81F
:1052B0001C2018350AF12002A6E732467FE729466E
:1052C00030460193FFF704FE019B7EE7A968CAF808
:1052D0001010E968CAF81410242A03D010350AF116
:1052E00018026CE72A69CAF818206A69CAF81C20F3
:1052F00018350AF1200262E7A006002038B5074CF5
:105300000023054608462360FDF7C8FA431C00D079
:1053100038BD2368002BFBD02B6038BD480E002021
:1053200010B50C46B1F90E1000F070FA002803DB3E
:10533000236D0344236510BDA38923F48053A38107
:1053400010BD00BF2DE9F0411646B1F90C201F46F3
:10535000D3050C46054607D500220223B1F90E10ED
:1053600000F03EFAB4F90C20B4F90E1022F4805289
:10537000A2813B4632462846BDE8F04100F01EB906
:1053800010B50C46B1F90E1000F02AFAA389421CA0
:105390000EBF23F4805343F480532065A38110BDD6
:1053A000B1F90E1000F082B900000000000000000A
:1053B00000000000000000000000000000000000ED
:1053C00090F800F06DE9024520F007016FF0000C45
:1053D00010F0070491F820F040F049804FF00004ED
:1053E0006FF00700D1E9002391F840F000F10800C8
:1053F00082FA4CF2A4FA8CF283FA4CF3A2FA8CF300
:105400004BBBD1E9022382FA4CF200F10800A4FA66
:105410008CF283FA4CF3A2FA8CF3E3B9D1E90423BA
:1054200082FA4CF200F10800A4FA8CF283FA4CF3F1
:10543000A2FA8CF37BB9D1E9062301F1200182FAAB
:105440004CF200F10800A4FA8CF283FA4CF3A2FAB1
:105450008CF3002BC6D0002A04BF04301A4612BABF
:10546000B2FA82F2FDE8024500EBD2007047D1E9C2
:10547000002304F00305C4F100004FEAC50514F051
:10548000040F91F840F00CFA05F562EA05021CBF22
:1054900063EA050362464FF00004A9E7F8B50D463C
:1054A0001446064610B1836B002B4BD0B4F90C2088
:1054B000A369A36091B2080739D52369002B36D0C0
:1054C000EDB289042F4615D522686169D31A8B4243
:1054D0001CDA0133A168501C0139A16020601570ED
:1054E00062699A421AD0A389DB0701D50A2D15D02B
:1054F0003846F8BD616E42F4005221F40051A28199
:10550000226861666169D31A8B42E2DB214630462C
:10551000FEF734FD40B922680123DBE7214630461F
:10552000FEF72CFD0028E3D04FF0FF37E0E72146DF
:105530003046FEF70FFC0028F6D1B4F90C202369A1
:1055400091B2BDE7FEF772FDB0E700BFF0B50646C9
:1055500085B01F4689B1104C104D2468646B002C37
:1055600008BF2C46D4F8E040A047431C03D10022DA
:105570008A233A60336005B0F0BD0C460649074AFD
:105580000968496B002908BF11462246D1F8E0405E
:1055900001A9A047E9E700BF04010020340500206D
:1055A00021B1FF2A04D80A700120704708467047CD
:1055B0008A2303604FF0FF30704700BF70B50D467F
:1055C000084C114606461A4628460023236000F080
:1055D000C3FA431C00D070BD2368002BFBD033609E
:1055E00070BD00BF480E00202DE9F8432C4D064643
:1055F000286898460F469146FFF7D8F8294B1C6853
:10560000D4F84831002B3ED05A681F2A1CDC02F126
:10561000010E76B103EB82010124C1F88890D3F822
:10562000880194402043022EC3F88801C1F8088104
:1056300023D00232C3F804E0286843F82270FFF751
:10564000B7F80020BDE8F883174B0BB34FF4C870D0
:10565000AFF300800346D8B1D4F84821026000219E
:1056600041600A46C4F848014FF0010EC0F88811A5
:10567000C0F88C11002EDCD0CCE7D3F88C110C4391
:10568000C3F88C41D5E704F5A673C4F84831BBE7ED
:105690002868FFF78DF84FF0FF30BDE8F88300BFB2
:1056A000300500208C5B00000000000038B5074C7E
:1056B0000023054608462360FDF706F9431C00D089
:1056C00038BD2368002BFBD02B6038BD480E00206E
:1056D00070B559B105460C4610B1836B002B3CD018
:1056E000636ED80705D5B4F90C302BB900263046C7
:1056F00070BDA38999053CD521462846FEF79EFB3F
:10570000E36A064633B1E169284698470028B8BFE6
:105710004FF0FF36A3891A0622D4216B41B104F160
:105720004003994202D02846FEF7A6FD00232363DA
:10573000616C21B12846FEF79FFD00236364FEF7EC
:10574000A1FC636E0022DB07A2810ED5A06DFFF7DE
:105750002BF8FEF79DFC304670BDFEF767FCBFE7F7
:1057600021692846FEF788FDD7E7A06DFFF720F8EE
:10577000ECE7A06DFFF71AF8B4F90C30002BBBD1A1
:10578000666E16F00106B1D1A06DFFF711F8304634
:1057900070BD00BF38B50B46074C0546114618468C
:1057A00000232360FDF793F8431C00D038BD236825
:1057B000002BFBD02B6038BD480E002038B5074CBD
:1057C0000023054608462360FDF786F8431C00D0F9
:1057D00038BD2368002BFBD02B6038BD480E00205D
:1057E00070B50D46084C114606461A462846002359
:1057F0002360FDF773F8431C00D070BD2368002BB5
:10580000FBD0336070BD00BF480E002070B50D4660
:10581000084C114606461A4628460023236000F02D
:1058200093F9431C00D070BD2368002BFBD033607C
:1058300070BD00BF480E002053B94AB9002908BF07
:1058400000281CBF4FF0FF314FF0FF3000F07AB955
:10585000ADF1080C6DE904CE00F006F8DDF804E0C7
:10586000DDE9022304B070472DE9F0478C460D4670
:105870000446089E002B51D18A4217466DD9B2FAD0
:1058800082FEBEF1000F0BD0CEF1200C01FA0EF516
:1058900020FA0CFC02FA0EF74CEA050C00FA0EF4A2
:1058A0004FEA174A250CBCFBFAF81FFA87F90AFBE6
:1058B00018CC45EA0C4508FB09F3AB420AD9ED19AF
:1058C00008F1FF3280F02381AB4240F22081A8F141
:1058D00002083D44ED1AA4B2B5FBFAF00AFB1055DC
:1058E00044EA054400FB09F9A14509D9E41900F18E
:1058F000FF3380F00A81A14540F2078102383C4421
:10590000A4EB090440EA08400021002E61D024FAEB
:105910000EF4002334607360BDE8F0878B4207D932
:10592000002E54D0002186E821000846BDE8F0870B
:10593000B3FA83F1002940F08E80AB4202D3824259
:1059400000F2FA80841A65EB03050120AC46002EB4
:105950003FD086E81010BDE8F08712B90127B7FBE9
:10596000F2F7B7FA87FEBEF1000F34D1EB1B3A0C09
:105970001FFA87FC0121B3FBF2F8250C02FB183358
:1059800045EA03450CFB08F3AB4207D9ED1908F1D2
:10599000FF3002D2AB4200F2D1808046ED1AA3B2B2
:1059A000B5FBF2F002FB105543EA05440CFB00FC8A
:1059B000A44507D9E41900F1FF3302D2A44500F24F
:1059C000B8801846A4EB0C0440EA08409DE7314635
:1059D0003046BDE8F087CEF1200405FA0EF307FA51
:1059E0000EF720FA04F83A0C25FA04F448EA030802
:1059F000B4FBF2F14FEA184502FB11441FFA87FC91
:105A000045EA044501FB0CF3AB4200FA0EF409D958
:105A1000ED1901F1FF3080F08A80AB4240F28780BF
:105A200002393D44EB1A1FFA88F5B3FBF2F002FB92
:105A3000103345EA034500FB0CF3AB4207D9ED19DF
:105A400000F1FF386FD2AB426DD902383D44EB1AFA
:105A500040EA01418FE7C1F1200722FA07F88B40A5
:105A600005FA01F448EA030320FA07FE4FEA134C53
:105A7000FD404EEA040EB5FBFCF94FEA1E440CFB58
:105A800019551FFA83F844EA054509FB08F4AC42AE
:105A900002FA01F200FA01FA08D9ED1809F1FF3013
:105AA00043D2AC4241D9A9F102091D442D1B1FFA72
:105AB0008EFEB5FBFCF00CFB10554EEA054400FBD6
:105AC00008F8A04507D9E41800F1FF3529D2A04510
:105AD00027D902381C4440EA0940A4EB0804A0FB83
